:100000000C9480020C94C7020C94C7020C94C70293
:100010000C94C7020C94C7020C94C7020C94C7023C
:100020000C94C7020C94C7020C94AA1E0C947E1F59
:100030000C941E190C94C7020C94C7020C94C702AE
:100040000C94C7020C94C7020C94C7020C94C7020C
:100050000C94C7020C9475190C94C7020C94C70237
:100060000C94C7020C94C7020C94C7020C94C702EC
:100070000C94C7020C94C7020C94C7020C94C702DC
:100080000C94C7020C94C7020C94C7020C94C702CC
:100090000C94C7020C94C7020C94C7020C94C702BC
:1000A0000C94C7020C94C7020C94C70229001E00CE
:1000B0001F0020002100220023002400250026002C
:1000C00027002D002E002B0014001A000800150038
:1000D00017001C0018000C00120013002F00300045
:1000E000394104001600070009000A000B000D004A
:1000F0000E000F00330034002800E1001D001B003B
:100100000600190005001100100036003700380005
:100110004C006400E000E300E20001512C00D95CD7
:10012000E6000158E400000000002A00320035001B
:100130003A003B003C003D003E003F0040004100D3
:10014000420043004400450001000100010052004C
:10015000010001000100010046004700480068005E
:10016000690001000100500051004F000100010032
:1001700001004A004B002A00010001000100AE000E
:10018000AC00AB00AA00A900A8004C004D004E0036
:10019000010049000100010001000100010001000F
:1001A00001000251010001000000000001006A008E
:1001B0000100010001000100010001000100010037
:1001C0000100010001000100010001000100010027
:1001D0000100010001000100010001000100010017
:1001E0000100010001000100010001000100010007
:1001F00001000100010001000100010001000100F7
:1002000001000100010001000100010001000100E6
:1002100001000100010001000100010001000100D6
:1002200001000100010001000100000000000100C8
:100230000100005C0100010001000100010001005B
:1002400001000100010001000100010001000100A6
:100250000100010001000100010001000100010096
:100260000100010001000100010001000100010086
:100270000100010001000100010001000100010076
:100280000100010001000100010001000100010066
:100290000100010001000100010001000100010056
:1002A0000100010001000100010001000000000048
:1002B0000100010000000000000000002A2B2800BF
:1002C0000000000000000000000000000000002905
:1002D000000000002C1E3420212224342627252E45
:1002E000362D3738271E1F2021222324252633337D
:1002F000362E37381F0405060708090A0B0C0D0EA9
:100300000F101112131415161718191A1B1C1D2F74
:100310003130232D350405060708090A0B0C0D0E94
:100320000F101112131415161718191A1B1C1D2F54
:100330003130354C000000000000000000000000DB
:1003400000000000000000007E0F00D4FFFFFFC788
:1003500000000078040330000000500348006500EE
:100360006E007400610069002000570065006500A0
:10037000610062006F00200053006C007500740083
:1003800064007200610067006F006E00200036009C
:100390003900340032003000200042006C0061005F
:1003A0007A006500200049007400000012034A0032
:1003B0006F00650020004D0061006D0061000000CD
:1003C0000403090409025B00030100A0FA09040008
:1003D0000001030101000921110100012240000771
:1003E00005810308000A0904010002030000000956
:1003F00021110100012222000705820320000107CC
:1004000005030320000109040200010300000009A4
:100410002111010001226D000705840320000A124A
:1004200001100100000008ADDE0880501301020336
:10043000010660FF0961A1010962150026FF009510
:1004400020750881020963150026FF0095207508B4
:100450009102C005010980A101850319012AB70095
:10046000150126B700950175108100C0050C090122
:10047000A101850419012AA002150126A0029501F7
:1004800075108100C005010906A101850505071940
:10049000E029E71500250195087501810205071976
:1004A0000029EF1500250195F07501810205081955
:1004B000012905950575019102950175039101C00A
:1004C00005010906A101050719E029E71500250125
:1004D00095087501810295017508810105071900CC
:1004E00029FF150026FF00950675088100050819EB
:1004F000012905950575019102950175039101C0CA
:1005000011241FBECFEFDAE0DEBFCDBF04B603FE7D
:1005100027C08091860290918702A0918802B091B5
:1005200089028730904BA740B04BD1F410928602DD
:1005300010928702109288021092890214BE84B72A
:10054000877F84BF0FB6F894A8958091600088617A
:1005500080936000109260000FBEE0E0F8E3099520
:1005600011E0A0E0B1E0E8E7F3E402C005900D92ED
:10057000A039B107D9F722E0A0E9B1E001C01D928E
:10058000A638B207E1F70E946F1B0C947F210C94F0
:10059000000081E0089581E008950C94C902089557
:1005A0000C94CF021F93CF93DF9300D000D00F9213
:1005B000CDB7DEB749835A836B833091A801898117
:1005C0009A8131111DC06623B9F02223A9F00E943F
:1005D0001F16182F682F89819A810E94CB15698177
:1005E0007A81812F0F900F900F900F900F90DF91D5
:1005F000CF911F910C94F2090E94F715182FEFCF9D
:100600000E941F1669817A81EDCFFC01262F40815F
:1006100051816281738184810C94D202CF93DF93E4
:10062000EC0160E00E940503BE01DF91CF910C94C4
:10063000D002FF920F931F93CF93DF93E82FF0E048
:10064000EC54FD4FF490C82FC695C695C695D0E0E2
:10065000FE01EC5BFC4F0491877010E0082E02C095
:10066000159507950A94E2F701701127CC5CDC4FD1
:10067000FE01C491D0E002C0D595C7958A95E2F7F6
:10068000C170DD270115110519F081EE0E94440E9D
:10069000209719F086EE0E94440E8F2D0E94B20E14
:1006A000CD2B19F086EE0E948A0E012B41F081EECF
:1006B000DF91CF911F910F91FF900C948A0EDF91E3
:1006C000CF911F910F91FF900895EF92FF920F939A
:1006D0001F93CF93DF93EC01162F0AE088818823C4
:1006E00009F454C0813009F04EC08981813099F4F9
:1006F0007E0122E0E20EF11C8A810E94B20EE70127
:100700002196812F815050F3EFE9FFE03197F1F707
:1007100000C00000F7CF823041F47E0182E0E80E95
:10072000F11C8A810E94440EEACF833041F47E019D
:10073000E2E0EE0EF11C8A810E948A0EE0CF843046
:1007400011F02196DDCF2A81229690E080E0AE0163
:100750004F5F5F4F2053330B2A30310548F001972C
:1007600078F2EFE9FFE03197F1F700C00000F7CF32
:10077000089FB001099F700D1124C901860F971FB2
:100780002981EA01E4CF0E941903BACFDF91CF910A
:100790001F910F91FF90EF90089560E00C94650316
:1007A0008F929F92AF92BF92CF92DF92EF92FF9281
:1007B0000F931F936B017C0181E090E0A0E0B0E01B
:1007C0004C015D0104C0880C991CAA1CBB1C4A95F5
:1007D000D2F7B501A4014C015D0104C0880C991C3D
:1007E000AA1CBB1C2A95D2F7482959296A297B29BA
:1007F00004C0880F991FAA1FBB1F0A95D2F78A0150
:100800009B010C211D212E213F21041715072607CE
:10081000370789F48C299D29AE29BF29BC01CD0158
:100820001F910F91FF90EF90DF90CF90BF90AF900E
:100830009F908F90089580959095A095B0958C216C
:100840009D21AE21BF21EACF0F93382F262F609133
:100850000E0270910F028091100290911102042FEC
:10086000432F0E94D0030F910C9409150E94AC19DC
:100870000E946917811102C00E9406180C94960606
:100880000C94990608950C94420481E008950C9408
:100890004504CF93C82F0E9443048C2FCF910C9412
:1008A000470408950E9432110E9451042FEF84E3FF
:1008B0009CE0215080409040E1F700C000000C9483
:1008C00099190F931F93CF93DF93EC0161E00E947E
:1008D00005038C01BE010E942908882359F1BE013D
:1008E000C8010E94CD02882329F1BE01C8010E94DF
:1008F000480B8823F9F0BE01C8010E949A0B882397
:10090000C9F0BE01C8010E94BD0C882399F08A81FC
:10091000882339F001158CE5180751F00E3D1C4570
:1009200079F0CE01DF91CF911F910F910C94CB0202
:100930000E94520480E0DF91CF911F910F910895A2
:100940000E940618F7CF90E080E008950895FC011A
:10095000EE0FFF1FEC5AFC4F859194910895CF93B1
:10096000DF930E94F2090E94BB05EC01811520E58E
:10097000920708F041C0811530E4930708F0B4C035
:10098000803E910518F5803C910508F09DC0883A9D
:10099000910570F4853A910508F08EC0813091057B
:1009A000F9F00097E9F00497D8F4D0E0C0E018C05F
:1009B0008F3B9105D0F7C85AD0E0CC0FDD1FC35F45
:1009C000DE4F0990D881C02DD4640AC081159042B1
:1009D00058F4C11581E0D80718F4C83ED10528F7AE
:1009E000CE01DF91CF910895C11590E3D90708F0AA
:1009F00071C0CE019F706AC0811525E5920758F538
:100A0000811534E5930708F09EC0811542E59407EF
:100A100050F4C11581E5D80708F469C0DC2FCC2754
:100A2000C16FD06ADDCF982F969596959E01237061
:100A30003327C115D34508F077C0C1E0D0E002C02C
:100A4000CC0FDD1F2A95E2F720E2929FC00111240E
:100A5000C82BD92B67C0C11589E5D807A8F4C115E3
:100A600098E5D90708F074C0C11526E5D20708F04B
:100A70009CCF8C2F0E945206C82FD0E0DC2FCC27B1
:100A8000CC27DF71D062ACCFC1153AE5D30708F4AB
:100A900064C0CE0190568115904208F086CF8D2F0C
:100AA0008F710E94520690E0982F882788279F71A7
:100AB0009C012C2BE901E6CFC55AD0E0C55CDE4F86
:100AC000C881D0E0D0648CCF805C91090E94A704DB
:100AD000EC0186CFCE019927D3FF03C0EC01D86C7F
:100AE0007FCFEC01D06C7CCFDF70D06A79CFCE01A4
:100AF000E4E096958795EA95E1F783702C2F26958B
:100B00002695237090E2299F90011124382B8C2F79
:100B10008370C1E0D0E002C0CC0FDD1F8A95E2F700
:100B2000C22BD32BDC685CCFC1E0D0E002C0CC0F7D
:100B3000DD1F2A95E2F730E2939FC0011124C82BF4
:100B4000D92BDA684DCFD82FCC27C46FD06A48CFC5
:100B5000DC2FCC27C06FD06A43CF8C2F8F700E94C0
:100B6000520634E0D695C7953A95E1F7CF709C2FA1
:100B7000EC01D06935CF82389105B1F1B0F4813301
:100B8000910509F475C048F48932910509F469C0EA
:100B90008A32910509F473C008958533910509F4EB
:100BA00059C08933910501F10895833E9105A9F15A
:100BB00038F4803E9105F9F0823E910549F108959F
:100BC000863E9105A9F1873E9105C9F1843E9105C4
:100BD00019F52091780221FF1FC08091770284FDD2
:100BE00014C087EE90E00895209177022370A1F061
:100BF00080EE90E008952091770220FD47C030916B
:100C0000780230FF09C024FF44C090E080E004C0B7
:100C10002091770222FDF7CF08952091770222FDDF
:100C20003BC03091780230FDE3CF24FFF5CFEDCF0C
:100C30002091770223FFF0CF24FDE7CFD2CF209180
:100C4000770223FD2CC03091780231FFEECF84EE85
:100C500090E008952091770225FFDECF89E290E0B1
:100C600008952091770225FFD7CF85E390E008957E
:100C70002091770226FFD0CF8AE290E0089520915C
:100C8000770226FFC9CF81E390E0089589E390E0E1
:100C9000089583EE90E0089582EE90E0089586EE48
:100CA00090E008959091770292FF06C0282F287156
:100CB0002830F9F4877F846093FF06C0282F2871BD
:100CC0002831F1F4877E84612091780220FF06C0EC
:100CD000382F38713830D9F4877F816021FF06C002
:100CE000282F28712831D1F4877E816194FD877E79
:100CF0000895282F24712430F9F68B7F8860DCCF8B
:100D0000282F2471243101F78B7E8861DDCF382FA5
:100D10003171313019F78E7F8860E0CF282F217133
:100D2000213121F78E7E8861E1CF08950C949506DC
:100D300008950C949806E82FF0E0EE0FFF1FE75996
:100D4000FD4F808191810895089580EA8A95F1F799
:100D50000895CF93DF93ABE4B1E040E551E0C1E00B
:100D6000D0E08D91E82FE295EF70F0E061A18F70F7
:100D70009E0101C0220F8A95EAF7922F9095962343
:100D800091A382A1822B82A34A175B0751F7AEE39E
:100D9000B1E061E070E08D91E82FE295EF70F0E056
:100DA00041A18F709B0101C0220F8A95EAF7922F13
:100DB0009095942391A382A1822B82A381E0AB34EE
:100DC000B80749F71092600210925F0210926A020F
:100DD00010926902109262021092610210926C02EB
:100DE00010926B02109264021092630210926E02D3
:100DF00010926D02109266021092650210927002BB
:100E000010926F02109268021092670210927202A2
:100E10001092710285E00E949807DF91CF910C94A7
:100E200036048F929F92AF92BF92CF92DF92EF9251
:100E3000FF920F931F93CF93DF938BE4E82E81E013
:100E4000F82E0FE512E0912CAA24A394B12CF701FF
:100E500081917F01C82FC295CF70D0E099A18F708A
:100E6000650101C0CC0C8A95EAF7892F8C2989A3EA
:100E70008AA18C2C809488218AA30E94A506EEE387
:100E8000F1E050E040E030E020E06191A62FA29533
:100E9000AF70B0E090968C9190E06F7002C0959525
:100EA00087956A95E2F780FD3EC0C501042E02C019
:100EB000880F991F0A94E2F7282B392B4F5F5F4F59
:100EC0004D30510511F789A1882289A28AA1C82A2B
:100ED000CAA2F801808191812817390739F131833D
:100EE000208381E0982A0E5F1F4FF0E5EF16F1E0B6
:100EF000FF0609F0ACCF292D45E069E672E08FE5E9
:100F000092E00E9499070E944004892DDF91CF91C1
:100F10001F910F91FF90EF90DF90CF90BF90AF9017
:100F20009F908F90089590E080E0C6CF80E0DACF68
:100F30000895FF920F931F93CF93DF93F82E092FFD
:100F4000162FD72FC42F222349F081E080939201DE
:100F50000E944E199093910180939001809192018B
:100F60008823A1F080919001909191010E946619CF
:100F7000069760F0EF2DF02FA12FBD2F90E080E0BD
:100F8000D0E08C179D0744F010929201DF91CF9131
:100F90001F910F91FF900895219131912D933D93D1
:100FA0000196EFCF82E290E00E943D21803289F4E9
:100FB00083E290E00E943D21813159F484E290E087
:100FC0000E943D2191E0893009F090E0892F8170E5
:100FD000089580E0FCCFCF93C82F6FEF811160E2BE
:100FE00082E290E00E944B216FEFC11161E183E248
:100FF00090E00E944B216FEFC11169E084E290E024
:10100000CF910C944B2180E00E94EB070C94631766
:10101000089585E290E00E943D21682F70E090E005
:1010200080E0089585E290E00C944B210E9408082E
:101030000E94D20781110CC060E070E0CB010E94D9
:1010400012080E946A090E94560A81E00C94EB077C
:101050000895CF93FB01C281CC2309F19C01225159
:101060003F452031310520F582510E94660AC0E0DB
:101070008C2FCF91089581E00E942F1543E062E00C
:1010800081E00E942404F3CF81E00E94501543E0E8
:1010900062E081E00E942404EBCF82E0F6CF803151
:1010A000FFE59F0789F381319F45B9F3C1E0E0CFA8
:1010B0008031EFE59E07F9F281319F45C9F682E064
:1010C000DBCF2FEFFC0120830895EF92FF920F9367
:1010D0001F93CF93DF93EC01062FE881E150E331BA
:1010E00008F05EC0F0E0EF57FE4D0C9430211982FD
:1010F00089E08A83602FCE01DF91CF911F910F91FC
:10110000FF90EF900C94631A8981823069F08330EC
:1011100071F08130D9F40E945A190E9436216A83F5
:101120007B838C839D83E6CF0E940908F6CF7E01E6
:1011300010E0812F0E949B06F701928383831F5F3B
:10114000F2E0EF0EF11C1530A1F7D4CF602FCE01E5
:101150000E946108CFCF89818230C1F76A817B818B
:101160008C819D810E9436210E941208C3CF4B8141
:101170006A8189810E943C099827892798279D8345
:101180008C83B8CF2C813D813227232732274B8196
:101190006A8189810E945509ADCF0E946A09AACF50
:1011A0008FEF8883A7CF0E94FF098983A3CF0E9476
:1011B000010A9827892798279A8389839BCF6B8177
:1011C00070E089819A81AE014C5F5F4F9827892733
:1011D00098270E94040A8ECF6B8170E089819A81E2
:1011E000AE014C5F5F4F9827892798270E942B0AF2
:1011F00081CF0E94560A7ECF0E942A09D6CF6B81EA
:1012000070E089819A81AE014C5F5F4F98278927F2
:1012100098270E94A2096ECF6B8170E089819A8124
:10122000AE014C5F5F4F9827892798270E94C80915
:1012300061CF0E9403085ECF0E94631A2FEF81EEF8
:1012400094E0215080409040E1F700C000000E94EF
:10125000991950CF84E0089550E0440F551F9AE14A
:10126000699F400D511D112492E8899F400D511D29
:101270001124CA01869608950F931F93CF93DF938D
:101280000E942C098C010E943D21C82FD0E0DC2F48
:10129000CC27C80101960E943D219E01282BC9013F
:1012A000DF91CF911F910F9108950F931F93CF93CB
:1012B000DF93122F032F0E942C09EC01602F0E9454
:1012C0004B21612FCE010196DF91CF911F910F919C
:1012D0000C944B21AF92BF92CF92DF92EF92FF928C
:1012E0001F93CF93DF938CEAC82E80E0D82ED0E0F6
:1012F0007601C0E014C0F50125913491412F6C2F87
:101300008D2F0E94550982E0A80EB11C1F5F1D3071
:1013100091F78AE1E80EF11CCF5FC53019F0570153
:1013200010E0E9CFDF5F82E8C80ED11CD43001F7AE
:10133000DF91CF911F91FF90EF90DF90CF90BF9002
:10134000AF900895EF92FF920F931F93CF93DF9387
:10135000EC018A017C01E60EF71ECE018696CE15C1
:10136000DF0539F4DF91CF911F910F91FF90EF903E
:101370000895C83022E0D20740F40E943D21F801D0
:1013800080830F5F1F4F2196E8CFF8011082F9CFBD
:10139000CF92DF92EF92FF920F931F93CF93DF9341
:1013A0007C016A018C01060F171FEC01CE018696A5
:1013B000C017D10749F4DF91CF911F910F91FF9092
:1013C000EF90DF90CF900895C83022E0D20740F42C
:1013D000FE01EE19FF09EC0DFD1D60810E944B21FD
:1013E0002196E4CF462F843038F4753028F46D30E0
:1013F00018F4672F0C943C0990E080E0089580E198
:10140000089582ED91E00895EF92FF920F931F935C
:10141000CF93DF93EC018A017C01E60EF71ECE012B
:10142000825D9D4FCE15DF0539F4DF91CF911F917D
:101430000F91FF90EF900895C23D21E0D20740F454
:101440000E943D21F80180830F5F1F4F2196E7CF57
:10145000F8011082F9CFCF92DF92EF92FF920F93B3
:101460001F93CF93DF937C016A018C01060F171F36
:10147000EC01CE01825D9D4FC017D10749F4DF9189
:10148000CF911F910F91FF90EF90DF90CF90089533
:10149000C23D21E0D20740F4FE01EE19FF09EC0D38
:1014A000FD1D60810E944B212196E3CFCF93DF93F6
:1014B000CEE2D2E060E0CE010E944B212196C11520
:1014C00084E0D807B9F7DF91CF910895DF92EF92CA
:1014D000FF920F931F93CF93DF9300D000D0CDB72F
:1014E000DEB7F82E8FE08F1540F08FEF93E00E946B
:1014F0003D210EE212E08823C1F00F900F900F9073
:101500000F90DF91CF911F910F91FF90EF90DF909F
:101510000895011584E0180781F3C8010E943D2158
:10152000811101C0FA940F5F1F4FF110F2CF1982A1
:101530001A821B821C82DD24D39478018FEFE81A73
:10154000F80AC8010E943D2189831A828823A9F2E2
:101550009FEF980F933078F48A83D9820E5F1F4FE4
:10156000C7010E943D218B83882339F2CE01019669
:101570000E94CD03E2CF8701F9CFAF92BF92CF9205
:10158000DF92EF92FF920F931F93CF93DF937C0133
:101590005B01C42FD22FFC0182818823F9F0409394
:1015A00095010E944E19909394018093930180E2DB
:1015B0008C0F883008F061C0C77081E001C0880FCF
:1015C000CA95EAF7DF91CF911F910F91FF90EF90AD
:1015D000DF90CF90BF90AF900C94C50E1091950105
:1015E000141340C080919301909194010E94661958
:1015F0006C01B701C5010E94A813C816D90690F561
:10160000C0E2CD0F1D17B9F080E2810F883040F4A1
:10161000177081E001C0880F1A95EAF70E94CC0E7E
:10162000C83048F481E09D2F977001C0880F9A95CB
:10163000EAF70E94C50E802F0E94B20EC830E8F46F
:10164000D77081E001C0880FDA95EAF7DF91CF917A
:101650001F910F91FF90EF90DF90CF90BF90AF90D0
:101660000C94CC0E80E28C0F883038F4C77081E087
:1016700001C0880FCA95EAF7E9CFDF91CF911F919A
:101680000F91FF90EF90DF90CF90BF90AF900895B3
:101690000F939C01CB01233F4CE5340759F1A8F48B
:1016A000283DFCE53F0701F1293D4CE53407D1F128
:1016B000273D3C4591F406E221EE41EE67ED7CE5E5
:1016C0000E94BD0A80E00F910895253FFCE53F0789
:1016D000E9F0B0F0263F3C45F9F0FC018281882317
:1016E00039F110929501EFCF07E225EE45EE68ED56
:1016F0007CE5E6CF06E221EE40EE63EF7CE5E0CF4D
:1017000007E225EE44EE64EF7CE5DACF06E221EE57
:1017100042EE65EF7CE5D4CF07E225EE46EE66EFBC
:101720007CE5CECF08E221E045EE69ED7CE5C8CF4F
:1017300081E0C9CFCF93DF93EC01FB018281882345
:1017400009F419C1C230FCE5DF07C0F1C6319CE5E0
:10175000D90730F09E012A5F3C452930310570F5EC
:101760000E947C179093780280937702C031ECE559
:10177000DE0709F4CFC008F05BC0C8308CE5D8079D
:1017800009F4B6C088F5C430ECE5DE0709F4A8C05A
:10179000C0F4C2308CE5D80709F49CC08091770270
:1017A0008260C330DC4509F498C080917702909143
:1017B00078020E948A170E94321180E0DF91CF9157
:1017C0000895809177028061C630ECE5DE0709F468
:1017D00084C0809177028860C730DC4508F47DC002
:1017E00080917702806279C0CC308CE5D80709F40B
:1017F00089C070F4809177028C60CA30ECE5DE0716
:1018000009F46BC008F478C0809177028E7F65C0C0
:10181000CE308CE5D80709F479C0809177028B7FB0
:10182000CF30DC4508F459C0809177028F7E55C0D7
:10183000CB3FECE5DE0709F457C030F5C3318CE54A
:10184000D80709F46FC078F4C131ECE5DE0709F47C
:1018500065C0C231DC4509F0A8CF0E9432118091E9
:1018600077028F773AC0C5318CE5D80709F462C09A
:1018700008F476C0809178028160CA3FDC4509F0A7
:1018800094CF8093780291CFCF3FFCE5DF0709F436
:101890004DC088F4809178028D7FCD3F9CE5D907BB
:1018A00081F3809178028E7FCE3FDC4550F38091AA
:1018B00078028360E6CFC130FDE5DF0709F459C047
:1018C00008F444C080E0C230DD4509F06ECF0E94CC
:1018D00008186BCF8091770281608093770265CF83
:1018E000809177028460F9CF809178028260C9CFBD
:1018F000809177028064F1CF0E943211809177024B
:101900008068EBCF809177028D7FE7CF809177025F
:10191000877FE3CF809177028F7DDFCF8091770241
:101920008F7BDBCF80917702837FD7CF8091780246
:101930008C7FA7CF8091770282FB992790F921E0D5
:10194000922790FB82F990FB83F9C7CF80917802B0
:10195000982F909591708E7F892B90FB81F991CF74
:101960000E94321190917702892F97FB87F9805856
:10197000B4CF81E0ACCF81E021CFCF93DF93EB01F7
:1019800086319C4511F50E94B4169A81992399F0ED
:101990008A7A91E009F490E090939601811109C050
:1019A00089E20E948F160E94001780E0DF91CF919C
:1019B000089585E3F6CF80919601811104C089E2F4
:1019C0000E949616F0CF85E3FBCF81E0EFCF909396
:1019D0009C0180939B010895E0919B01F0919C01F3
:1019E000309721F00190F081E02D099480E0089576
:1019F000E0919B01F0919C01309799F020910C01AE
:101A0000222359F02091770227FF07C0DC012C9197
:101A100011962C93119725E02C930280F381E02DF1
:101A2000099408952091990130919A012817390756
:101A300071F090939A0180939901E0919B01F0914C
:101A40009C01309721F00680F781E02D09940895DC
:101A500020919701309198012817390771F09093E0
:101A6000980180939701E0919B01F0919C01309740
:101A700021F00084F185E02D0994089585B78068F0
:101A800085BF85B7806885BF0895089508950C9433
:101A9000450D08950C94490D0E943E0D0E94460D7F
:101AA0000C94470D81E008950C94520D0E94451945
:101AB0000E94A9060E9416080E94C319E7E7F2E0F7
:101AC00080818068808380917702909178020E9463
:101AD0008A170C944A0D9F92AF92BF92CF92DF92D9
:101AE000EF92FF920F931F93CF93DF93CDB7DEB7A3
:101AF0002A970FB6F894DEBF0FBECDBF0E94110724
:101B00000E94540D882309F46DC05EE9A52E51E0B2
:101B1000B52E10E000E0902E802F0E949B066C01F5
:101B2000F501E190F1905F01E816F90609F454C05F
:101B300080913B0281FD0E94A40697012C253D2542
:101B400080E0EE24E394F12CA9014E215F21452B86
:101B5000E9F18E839F82CE20DF2081E0CD2809F439
:101B600080E088870E944E198160782F9A87898744
:101B70004E815F8168858A850E94150E000F111FB6
:101B8000F801E256FE4F80819181E826F926F18224
:101B9000E0820E94EC0C90919D018917A1F10E94B6
:101BA000EC0C80939D012A960FB6F894DEBF0FBE11
:101BB000CDBFDF91CF911F910F91FF90EF90DF90FC
:101BC000CF90BF90AF909F900C9449048F5FEE0C24
:101BD000FF1C8D3009F0B8CF0F5F1F4F0530110586
:101BE00009F099CF8FEF89838A831B820E944E1957
:101BF0008160782F9D838C8349815A816B818D818F
:101C00000E94150EC6CF2A960FB6F894DEBF0FBEFF
:101C1000CDBFDF91CF911F910F91FF90EF90DF909B
:101C2000CF90BF90AF909F900895CF93DF93CDB7A3
:101C3000DEB72B970FB6F894DEBF0FBECDBF4F8334
:101C4000588769877A878B871E821D8285E0FE010F
:101C50003796DE01119601900D928A95E1F7498140
:101C60005A816B817C818D819E812B960FB6F89471
:101C7000DEBF0FBECDBFDF91CF910C94AB13FC0143
:101C8000808191810C946116CF93C82F882309F429
:101C90003FC08CEF8C0F813AA0F46C2F8091000133
:101CA000909101010E942118882329F08C2F0E9415
:101CB00096160E9400178C2F0E948F16CF910C94BD
:101CC000001780E28C0F883048F4C77081E001C0B3
:101CD000880FCA95EAF70E94B716F0CFEBE5EC0F34
:101CE000E33040F4F0E0E258FE4F808190E0CF9185
:101CF0000C94120DC85AC73158F4EC2FF0E0EE0FD7
:101D0000FF1FE05BFE4F80819181CF910C94280DE5
:101D1000CF910895882329F19CEF980F913A20F4F0
:101D20000E9496160C94001790E2980F983050F489
:101D3000877091E001C0990F8A95EAF7892F0E9478
:101D4000BD16F0CF9BE5980F933020F490E080E033
:101D50000C94120D885A873120F490E080E00C94A6
:101D6000280D0895CF93C82F0E94440EC93349F41B
:101D70002FEF87EE93E0215080409040E1F700C0C4
:101D800000008C2FCF910C948A0E882321F00E94A2
:101D9000B7160C9400170895882321F00E94BD16F1
:101DA0000C9400170895BF92CF92DF92EF92FF92AA
:101DB0000F931F93CF93DF936C01D62FC72FFC0196
:101DC000058102950F70128111110E94D4160E9494
:101DD000AD16E82E882391F01123D1F08C2F807F4F
:101DE000803421F080E28D0F883090F082E00E94F4
:101DF0004B170E94AD1691E0E82EE926BC2EB29456
:101E00009FE0B922EB2DF0E0EC56FE4D0C94302112
:101E1000E12CF4CF0C2F0F70C07F11F00295007FE2
:101E20001123A9F0002359F080E28D0F883010F0C3
:101E3000D11109C0802F0E94B7160E9400178D2F64
:101E40000E94440E14C0802F0E94C716F6CF8D2F1B
:101E50000E948A0E002359F080E28D0F883010F026
:101E6000D1112CC0802F0E94BD160E9400172B2D6F
:101E70002850330B2430310520F40E94EC0C0E94D2
:101E80004904EE2009F493C10E94A91680FD8FC178
:101E9000F60112820E94A3160E942F15C6010E940D
:101EA000F8100E94A316DF91CF911F910F91FF9020
:101EB000EF90DF90CF90BF900C945015802F0E9430
:101EC000CD16D3CFFC2FFF70FF2EC07FC03219F08C
:101ED000F29480EFF822DD2369F0D13049F111232B
:101EE00091F1002351F1F601858180FFA8CF8F7019
:101EF000858323C0112381F0011106C00E94E716DB
:101F00008F290E94C50EB3CF0130C1F70E94E7169A
:101F10008F290E94ED16ABCF011106C00E94F61664
:101F20008F2D0E94CC0EA3CF013009F4A0CFF6CFA5
:101F3000112329F0043008F09ACF8F2DE2CF03301F
:101F400008F095CFEDCF002359F3D93349F4FFEFD3
:101F500027EE33E0F15020403040E1F700C00000B0
:101F60008D2F0E948A0E83CF8C2F86958695837045
:101F700069F0813009F07BCF8D2F9C2F9370111168
:101F800002C090E080E00E94280D71CF8D2F9C2F21
:101F90009370111102C090E080E00E94120D67CF93
:101FA0008C2F837009F041C0111161CF4D2F4295E4
:101FB00046954770440F440F0D2F0F7010E030E02E
:101FC00020E0042E04C0000F111F221F331F0A94AB
:101FD000D2F760E070E0CB01D4FF0FC06FE070E09B
:101FE00080E090E004C0660F771F881F991F4A9514
:101FF000D2F76095709580959095C695C695C370FB
:10200000602B712B822B932BC23049F058F4C130D6
:1020100019F00E94E1142BCF0E94CF1428CF0E9408
:10202000F31425CF0E94CD1422CF8695112311F0F1
:102030008C2F8170882309F41ACF4D2F4295469535
:102040004770440F440F0D2F0F7010E030E020E078
:10205000042E04C0000F111F221F331F0A94D2F751
:1020600060E070E0CB01D4FF0FC06FE070E080E073
:1020700090E004C0660F771F881F991F4A95D2F71A
:102080006095709580959095C695C695C370602BA8
:10209000712B822B932BC23049F058F4C13019F0C8
:1020A0000E94A615E4CE0E949415E1CE0E94B815B8
:1020B000DECE0E940915DBCECF70112329F08C2FC4
:1020C0000E942F158D2F1DCF8D2F0E94CC0E8C2F8F
:1020D0000E945015CCCED23F89F160F4D03FC9F0B8
:1020E000D13F29F1112309F442C00111A8CE8C2F50
:1020F0008F7121C0D33F39F1D43FA1F7112369F18A
:10210000CF718C2F0E942F1563E08C2F0E94361701
:10211000AECE112341F0033008F0A9CE8C2F8F7181
:102120000E947315A4CE043008F0A1CEF7CF8C2FF7
:102130008F71112369F20E942F1599CE8C2F8F7108
:102140001123C9F3C5CF112329F08C2F8F710E9461
:102150001A158DCE0E9415158ACE81E00E944B176C
:10216000023008F484CE82E00E944B1780CE002318
:1021700059F0D93309F0F4CE8FEF97EEE3E08150B8
:102180009040E040E1F7EACE8C2F8F71A1CF4C2F29
:102190004F706D2FC6010E94A3040E94451467CEA4
:1021A0004C2F4F706D2FC6010E94A60460CEDF91A8
:1021B000CF911F910F91FF90EF90DF90CF90BF9044
:1021C00008950F931F93CF93DF93EC01688179817A
:1021D0008A810E946B168C010E94CA150E94CC1441
:1021E000B801CE01DF91CF911F910F910C94D30EC6
:1021F000CF93DF93EC018B819C81892B29F088811F
:10220000998189238F3F59F4DF91CF910895CE01B1
:102210000E94E110CE01DF91CF910C940E03CE010C
:102220000E9461048111F3CF0E94AD16882361F3EF
:102230008A81882349F382E0DF91CF910C944B1778
:102240000E94D4160E94E4160E94001790E080E0DD
:102250000E94120D90E080E00C94280D0E949D16C3
:102260000C9420110E94C4160C942E11E92FE295B3
:10227000EF70E250EE3070F4F0E0EC55FE4D0C944F
:102280003021803F19F020F4883E20F481E0089549
:10229000843FE1F380E00895883EC0F3813FD1F7A9
:1022A000F5CF93FB882780F908950E9461160C945E
:1022B0003611CF93DF9300D000D00F92CDB7DEB7A9
:1022C0000F900F900F900F900F90DF91CF91089586
:1022D000CF93DF9300D000D000D0CDB7DEB72696E5
:1022E0000FB6F894DEBF0FBECDBFDF91CF9108953A
:1022F0001F93CF93DF93C091A90116E08091AA01AB
:102300008C1304C0DF91CF911F910895D0E01C9FE2
:10231000F0011D9FF00D1124E555FE4F40815181C4
:1023200062817381848195810E9468112196C770B2
:10233000E5CF4091DB015091DC016091DD017091AE
:10234000DE018091DF019091E0010C9468111F93F0
:10235000CF93DF938091E001807FA9F48091DD012C
:10236000882389F08091A901C091AA016091DB01C5
:102370007091DC01A091DE01B091DF01D62FD7234F
:1023800016E0C81304C0DF91CF911F91089590E02B
:10239000109711F0DF3F19F401968770F2CF189F64
:1023A0009001199F300D1124F901E555FE4F41812F
:1023B0004713F2CF40814613EFCF42814111ECCF5A
:1023C000438154814A1B5B0B4F3A510528F780919A
:1023D000E0018F7080618093E001F901E055FE4FCC
:1023E00080818F70806180838BED91E00E94F81076
:1023F000DF91CF911F910C947811AF92BF92CF9241
:10240000DF92EF92FF920F931F93CF93DF93CDB79D
:10241000DEB761970FB6F894DEBF0FBECDBF8C015B
:1024200085E0F801DE011D9601900D928A95E1F795
:10243000F80140815181E2808BEDC82E81E0D82ED9
:102440006091DE017091DF016115710509F461C1D0
:102450009091DB012091DC01892F82238F3F09F4C9
:1024600058C1A380B480F090DD01F501E61BF70BA5
:10247000FF2009F4FCC08091E001382F307FEF3A53
:10248000F10508F0B2C0311179C0FE2C251323C02C
:10249000941321C0E1101FC08F7080618093E00110
:1024A0000E949911C6010E94F8108091E001F80184
:1024B00085838F2D61960FB6F894DEBF0FBECDBF1A
:1024C000DF91CF911F910F91FF90EF90DF90CF9010
:1024D000BF90AF900895AB2829F0842F85238F3FBC
:1024E00009F033C180E0F82FF170DF2E80FF3CC08F
:1024F0008091A9012091AA0136E0821315C04D8771
:102500005E878D859E850E946116292F22952F70EA
:102510002230F0F0243018F59F70F1F0F801958129
:10252000907FD1F4D12C1EC090E0389FF001399FEC
:10253000F00D1124E555FE4F6181651306C06081E1
:10254000641303C062816E110FC001968770D5CFEE
:102550009F7011F0882331F3805E883018F3C80132
:102560000E94F810FD2CA5CFEE2009F4A2CF809197
:10257000E00181608093E001F12C9BCF251306C020
:10258000941304C0F801EE2009F48DC04D875E87D6
:102590008D859E850E945511882319F1EE2009F141
:1025A0008091E001803270F02091DB013091DC01FC
:1025B00038872F831986BB86AA868C87CE0107961B
:1025C0000E94F81086E0F801ABEDB1E001900D92A9
:1025D0008A95E1F70E94A7110E949911FF24F394B4
:1025E00068CFC8010E94F810F9CF311113C07A2DBD
:1025F000B98AA88A6E2D89890E9459118BED91E0C4
:102600000E94F81086E0F60111928A95E9F70E947F
:102610009911B2CF25130FC094130DC0E1100BC058
:10262000F8018583C8010E94F81086E0F601119236
:102630008A95E9F73ECF4D875E878D859E850E94FE
:102640005511882371F2EE2061F28091E001803211
:1026500008F4B8CF2091DB013091DC013A83298363
:102660001B82BD82AC828E83CE010196A9CFEF3A48
:10267000F10508F041C0FE2CEE2009F4B2CF25137D
:102680002AC0941328C08091E00180FD1BC0982FC0
:10269000907FC1F0F8018583903F31F0982F907FB3
:1026A000905F8F70892B8583C8010E94F81086E0A7
:1026B000F801ABEDB1E001900D928A95E1F70E942F
:1026C0009911F7CE86E0F801ABEDB1E001900D92E3
:1026D0008A95E1F7EECE4D875E878D859E850E94B7
:1026E000551181116FCF8091E00181608093E001ED
:1026F000C8010E94F810DDCE7A2DB98AA88A6E2D05
:1027000089890E94591186E0F60111928A95E9F7AC
:10271000D6CFEE2009F465CF4D875E878D859E85E7
:102720000E945511F82E882309F45BCF86E0F8014A
:10273000ABEDB1E001900D928A95E1F78BED91E060
:102740000E943F0E0E94A711BACF81E08E25CBCE0A
:102750008FEA90E008951F93CF93DF93CDB7DEB754
:102760002C970FB6F894DEBF0FBECDBF4F835887AE
:1027700069877A878B879C87CE0107960E94FD1117
:10278000882369F08A859B85892B39F04F8158858C
:10279000842F85238F3F09F071C016E05FC086E06B
:1027A000FE013796DE01119601900D928A95E1F7B0
:1027B0008A859B85892B89F38F81988589238F3F13
:1027C00061F32091AA0130E0C90101968770992731
:1027D0004091A9014817190671F40E943211109214
:1027E000AA011092A90186E0EBEDF1E0DF011D9254
:1027F0008A95E9F7D2CF96E0929FD001939FB00DD2
:102800001124A555BE4FFE01319601900D929A9567
:10281000E1F78093AA010E947811BFCF819FC00188
:10282000112485559E4F0E94FD118823E9F0E09107
:10283000A9011E9FF0011124E555FE4F40815181F1
:1028400062817381848195810E9468118091A901C0
:1028500090E00196877099278093A9018091A90142
:102860009091AA018913DACF2C960FB6F894DEBFA7
:102870000FBECDBFDF91CF911F91089569857A85F5
:102880008B859C850E94681188CFEF92FF920F93F1
:102890001F93CF93DF938C01892B81F0F12CEE24D1
:1028A000E394E8012196F8018491843770F4843030
:1028B00008F05FC08130B1F08230A1F1DF91CF919B
:1028C0001F910F91FF90EF900895853709F44CC048
:1028D00008F43DC09CE7980F903780F78F770E94EF
:1028E0008A0E49C00E5F1F4FFE01849190E2980F3F
:1028F000983060F48770FE2D01C0FF0F8A95EAF7CB
:102900008F2F0E94D7160E94001702C00E94440E0B
:102910008F2D815030F2EFE9FFE03197F1F700C0E1
:102920000000F7CF0E5F1F4FFE01849190E2980FD9
:10293000983050F48770FE2D01C0FF0F8A95EAF79A
:102940008F2F0E94DD16DFCF0E948A0EE1CF0E5F2F
:102950001F4FFE01C491C150D8F28FE99FE001974B
:10296000F1F700C00000F7CF0E5F1F4FFE01F4909B
:10297000CFCF0E94440E8E01CBCF08950C94BD148E
:102980000E94BE146093120270931302809314028B
:10299000909315020C94201108950C94C0140F9379
:1029A0001F93009112021091130220911402309192
:1029B0001502602B712B822B932B1F910F910C947E
:1029C000C0140F931F9300911202109113022091D3
:1029D00014023091150260237123822393231F91E7
:1029E0000F910C94C0140F931F9300911202109139
:1029F000130220911402309115026027712782275B
:102A000093271F910F910C94C0140C94BD140C9437
:102A100005150E94071560930E0270930F028093B4
:102A20001002909311020C94201160E070E0CB0131
:102A30000C9409150F931F9341E050E060E070E0A3
:102A40008A019B0104C0000F111F221F331F8A95AA
:102A5000D2F7C901B8011F910F910C9409150F937A
:102A60001F9341E050E060E070E004C0440F551F48
:102A7000661F771F8A95D2F780910E0290910F0200
:102A8000A0911002B09111028A019B01082B192B11
:102A90002A2B3B2BC901B8011F910F910C940915EA
:102AA0000F931F9341E050E060E070E004C0440FDA
:102AB000551F661F771F8A95D2F7CB01BA01609523
:102AC00070958095909500910E0210910F022091C3
:102AD00010023091110260237123822393231F91EE
:102AE0000F910C9409150F931F9341E050E060E0A3
:102AF00070E004C0440F551F661F771F8A95D2F7F8
:102B000080910E0290910F02A0911002B0911102DB
:102B10008A019B01082719272A273B27C901B801E9
:102B20001F910F910C9409150F931F9300910E02A2
:102B300010910F022091100230911102602B712B25
:102B4000822B932B1F910F910C9409150F931F93B8
:102B500000910E0210910F0220911002309111028B
:102B600060237123822393231F910F910C940915E5
:102B70000F931F9300910E0210910F0220911002EB
:102B80003091110260277127822793271F910F919F
:102B90000C94091508952DE0929F800D1124982F13
:102BA000977041E001C0440F9A95EAF786958695A3
:102BB000869595E0899FF0011124EF51FE4F90E03A
:102BC00080E070E05191DF0111979B01082E02C057
:102BD000369527950A94E2F721702195252724231D
:102BE00025272C9301968530910561F708952DE0F6
:102BF000929F800D1124982F9770869586958695C3
:102C000025E0829FF0011124EF51FE4F50E040E09B
:102C100080E0219130E0092E02C0369527950A9474
:102C2000E2F721703327042E01C0220F0A94EAF73D
:102C3000822B4F5F5F4F4530510559F70895BF9282
:102C4000CF92DF92EF92FF920F931F93CF93DF9378
:102C50008C01C0900E02D0900F02E0901002F09014
:102C600011028091120290911302A0911402B0916E
:102C70001502C82AD92AEA2AFB2ACFE1D0E0BC2EC5
:102C8000D701C6010C2E04C0B695A79597958795D8
:102C90000A94D2F780FD0EC0219788F7B12C8B2DB6
:102CA000DF91CF911F910F91FF90EF90DF90CF9028
:102CB000BF900895B8018C2F0E94AF04019761F373
:102CC000EECFCF93DF93EC010E941F16BE01DF9180
:102CD000CF910C94AF041F93CF93DF93EB019091AE
:102CE000A801992331F0CB01DF91CF911F910C9472
:102CF0006116882379F0CB010E941F16182F682FC8
:102D0000CE010E94CB15BE01812FDF91CF911F9183
:102D10000C94AF04CB010E94F715182FF4CF682F45
:102D200080910001909101010C94A118682F80916D
:102D30000001909101010C94AC18809100019091D8
:102D400001010C94B718809116028595859585959B
:102D500008958091160287700895909116029770D9
:102D600081E009F480E0089580913A0208959091FD
:102D70003A02892B80933A020895809590913A0205
:102D8000982390933A02089510923A0208959091F0
:102D90003902892B809339020895809590913902E8
:102DA00098239093390208951092390208959091D2
:102DB0003802892B809338020895809590913802CB
:102DC00098239093380208951092380208958091C4
:102DD0001702089508950C94EA1690911702981717
:102DE00021F0809317020C94EB160895809117023E
:102DF000882329F01092170280E00C94EB160895B6
:102E0000E0910001F091010180913A028083E0910C
:102E10000001F0910101808190913902892B80831A
:102E2000E0910001F0910101808190913802892B9D
:102E3000808390911702992381F0E0910001F09135
:102E400001018081892B8083809100019091010193
:102E50000E940D1881110E94F61680910001909138
:102E600001010C94F80C08950C94331798E0899F95
:102E700090011124622B609316020E942F158091FD
:102E800016028595859585950C9434171092160237
:102E900080E00C94341790911602809589238093DA
:102EA0001602282F277071F4282F082E000C330BE0
:102EB0009217130639F08595859585950E945015D2
:102EC0000C94461708956FEF7FEF90E080E00C942C
:102ED000692190E080E00E94452121E08C3E9E4FD8
:102EE00009F020E0822F089582E090E00C943D21CB
:102EF00083E090E00C943D21CF9384E090E00E9429
:102F00003D21C82F81E290E00E943D21982F8C2F17
:102F1000CF910895CF93C92F682F84E090E00E944D
:102F20004B216C2F81E290E0CF910C944B21AB01AF
:102F3000BC018FE090E00C945D21AB01BC0183E10A
:102F400090E00C945D2160E070E0CB010C949D1743
:102F500060E070E0CB010E9497170C94A3176CEE11
:102F60007EEF90E080E00E94692160E082E090E0E6
:102F70000E944B2160E083E090E00E944B21109280
:102F8000120210921302109214021092150260E0C5
:102F900084E090E00E944B2160E081E290E00E949A
:102FA0004B2160E085E090E00E944B2160E086E0EC
:102FB00090E00E944B216FEF87E090E00E944B2150
:102FC00040E050E0BA0188E090E00E945D2160E0BE
:102FD0008DE090E00E944B2140E050E0BA0188E192
:102FE00090E00E945D2160E087E190E00E944B212B
:102FF00040E050E0BA018CE190E00E945D2160E089
:1030000080E290E00E944B210C94A8170C94AF171B
:10301000682F8EE090E00C944B21FC013296809159
:103020000C01882321F0809177029EE187FF96E0D2
:1030300080E0915008F4089521912223D1F38F5F0D
:10304000F8CF662301F120910C012223F1F02091A9
:10305000770227FF1AC0462F4695469546954E3172
:1030600090F4677021E030E002C0220F331F6A95B0
:10307000E2F7840F911DFC01828190E0282339231F
:1030800081E0232B69F480E00895FC0132960896D4
:103090002191261721F0E817F907D1F7F4CF81E045
:1030A00008959C01FC0132969FEF80E04191461704
:1030B00051F09F3F19F4411101C0982F8F5F863066
:1030C000A9F79F3F09F40895290F311D97FD3A95FF
:1030D000F90162830895FC01329608962191261326
:1030E00003C0DF0111971C92E817F907B9F708959B
:1030F000E62FE695E695E695EE3168F4E80FF92FB0
:10310000F11D677021E030E001C0220F6A95EAF7F7
:103110008281822B82830895E62FE695E695E695D7
:10312000EE3170F4E80FF92FF11D677021E030E007
:1031300001C0220F6A95EAF7209582812823228315
:10314000089520910C01222329F02091770227FD78
:103150000C9478180C94511820910C01222329F01A
:103160002091770227FD0C948C180C946B18FC01AD
:10317000329680910C01882351F08091770287FF6D
:1031800006C08EE1DF011D928A95E9F7089586E079
:10319000F9CF089508950C94CA180E94CB18809115
:1031A0007D02843049F110923C0288E190E020E4F5
:1031B0000FB6F894A895809360000FBE209360002E
:1031C00080E00E9449040E94CB1883B7817F84600D
:1031D00083BF83B7816083BF7894889583B78E7FE0
:1031E00083BF0FB6F894A8958091600088618093A2
:1031F0006000109260000FBE08950895CF930E9462
:10320000C9180E9411070E94FD18C0E08C2F0E946F
:103210009B06892B31F4CF5FC530C1F780E0CF9199
:10322000089581E0FCCF08950C9413190E94321187
:103230000E94EC0C0E9449040C9414191F921FB6B2
:103240001F9211248F939F93AF93BF9380913C0261
:10325000811113C08091730290917402A091750244
:10326000B09176024196A11DB11D80937302909397
:103270007402A0937502B0937602BF91AF919F91B3
:103280008F911F901FBE1F90189582E084BD93E020
:1032900095BD9AEF97BD80936E0008952FB7F8946F
:1032A0008091730290917402A0917502B0917602A0
:1032B0002FBF08952FB7F894609173027091740234
:1032C00080917502909176022FBF08959C014FB7AF
:1032D000F8948091730290917402A0917502B0915C
:1032E00076024FBF821B930B089578941F921FB6EE
:1032F0001F9211248F939F93AF93BF93809173027A
:1033000090917402A0917502B09176020196A11D70
:10331000B11D8093730290937402A0937502B093D1
:103320007602BF91AF919F918F911F901FBE1F900A
:10333000189587E797E7909301088093000888E144
:103340009AE00FB6F894A895809360000FBE909312
:103350006000FFCF0C9403080E9411072FEF86E74F
:1033600091E0215080409040E1F700C000000E94B1
:10337000110780E00E949B0680FF04C00E94AA19EA
:103380000C94991908950E946917811102C00E9436
:1033900006180E94741780933B020E947C1790933A
:1033A0007802809377020E947817682F70E090E08F
:1033B00080E00E94CD1460910E0270910F02809106
:1033C0001002909111020C94071580915D020895EE
:1033D0000895CF93DF9300D00F92CDB7DEB79091D1
:1033E0007D02943011F589837B836A839093E90091
:1033F0008FEF9091E800815095FD06C095ED9A956C
:10340000F1F700008111F5CF8091E80085FF0DC034
:1034100050E040E063E070E0CE0101960E94501C55
:103420008091E8008E778093E8000F900F900F90C6
:10343000DF91CF910895BC0184E00C94E919BC019F
:1034400083E00C94E919CF93DF93EC0180910C0198
:103450008823B1F18091770287FF32C060E284E077
:103460008093E9008FEF9091E800815095FD06C0B0
:1034700095ED9A95F1F700008111F5CF8091E80064
:1034800085FF1BC080910C0170E050E040E081118D
:1034900004C050E040E068E070E0CE010E94501CA3
:1034A0008091E8008E778093E80080E2FE01ADE332
:1034B000B2E001900D928A95E1F7DF91CF910895E6
:1034C00068E081E0CDCFCF93FC01603221F580919F
:1034D0007D02843001F5C091E900CF702091EC00AD
:1034E000922F917020FD90E8C92B82E08093E90033
:1034F0008091E80080FF0CC050E040E060E270E0A6
:10350000CF010E94501C8091E8008E778093E800E4
:10351000CF70C093E900CF91089580917C02811112
:1035200009C00E942F1E0E948C1E8091E2008460C0
:103530008093E200089510927C0208950895089502
:103540000C94161942E061EC81E00E94AB1D42E24E
:1035500061EC84E00E94AB1D42E261EC82E00E94DB
:10356000AB1D42E260EC83E00C94AB1D80917F02C6
:10357000833009F461C030F48130D1F1823009F434
:103580009DC008958A3009F489C08B3009F46FC05A
:10359000893009F050C080917E02813209F04BC021
:1035A0008091820290918302009719F0029709F0AE
:1035B00042C08091E800877F8093E8008091E80016
:1035C00082FF35C09091F3008091F200029729F4B8
:1035D0008091F1008B7F813021F48091F100809304
:1035E0005D028091E8008B778093E8000C94DF1DEA
:1035F00080917E02813AF9F48091E800877F809380
:10360000E8008091820290918302892B61F460E24C
:103610008DE392E070E00E94EE1C8091E8008B77D1
:103620008093E800089560E090E080E0F3CF80911F
:103630007D028111C3CF089580917E02813AD9F72E
:103640008091820290918302892BA9F78091E800F2
:10365000877F8093E8008091E80080FFFCCF809115
:103660000C018093F1008091E8008E77BDCF8091AE
:103670007E02813201F78091820290918302892B30
:10368000D1F68091E800877F8093E8000E94DF1DDB
:103690008091800280930C010C94321180917E0203
:1036A000813249F68091E800877F8093E8000E948C
:1036B000DF1D8091810280935E02089580917E02D9
:1036C000813A09F0B8CF8091E800877F8093E800C5
:1036D0008091E80080FFFCCF80915E02C2CFCDB721
:1036E000DEB7A0970FB6F894DEBF0FBECDBF84B78C
:1036F000877F84BF0FB6F894A89580916000886199
:1037000080936000109260000FBE80E890E00FB6DA
:10371000F89480936100909361000FBE0E944C0D5D
:103720000E942F1E0E948C1E8091E2008460809374
:10373000E20078940E9415210E94560D82E091E0EB
:103740000E94E70C13E080917D02853039F10E94E0
:103750006B0D80917D028430B1F71093E900809168
:10376000E80082FFF0CF8091E80090E085FF09C07B
:1037700050E040E060E270E0CE0101960E949F1CA4
:1037800091E08091E8008B778093E8009923D9F24B
:1037900060E2CE0101960E946508D5CF0E94CD1847
:1037A00080917B02882379F20E94FE18882359F2C7
:1037B0000E943A1CC8CF0C94DD1B292F33272330DD
:1037C000310521F168F42130310509F449C0223076
:1037D000310509F44AC090E080E030E020E029C0E3
:1037E0002132310581F122323105A9F763307105AB
:1037F00090F7FB01EE0FFF1FEC57FE4F2081318148
:103800006F577E4FFB01808190E013C09927813074
:10381000910599F0009741F08230910589F0039766
:10382000D1F6E4E5F3E002C0E0ECF3E0849190E04F
:103830009F01FA01318320830895ECEAF3E0F6CF8B
:10384000EAE5F3E0F3CF6330710528F6660F771FE2
:10385000FB01E657FE4F2081318189E090E0E9CFFE
:1038600082E190E02FE134E0E4CF8BE590E024ECBE
:1038700033E0DFCF80E189BD82E189BD09B400FE7C
:10388000FDCF8091D8008F7D8093D8008091E0009B
:1038900082608093E0008091E00081FDFCCF08957C
:1038A000AF92BF92CF92DF92FF920F931F93CF936D
:1038B000DF936C01EB018A010E94FE1DF82E81113D
:1038C00023C00115110539F0F80180819181C81BD1
:1038D000D90BC80ED91EB12CA12C2097A9F080912C
:1038E000E80085FD22C08091E8008E778093E80093
:1038F00001151105A1F0F80180819181A80EB91E72
:10390000B182A08285E0F82E8F2DDF91CF911F919B
:103910000F91FF90DF90CF90BF90AF9008950E94DD
:10392000FE1D8823D1F2F82EEFCFF60181916F01B1
:103930008093F1002197FFEFAF1ABF0ACECFAF926D
:10394000BF92CF92DF92FF920F931F93CF93DF939B
:103950006C01EB018A010E94FE1DF82E811123C02B
:103960000115110539F0F80180819181C81BD90B2F
:10397000C80ED91EB12CA12C2097A9F08091E80087
:1039800085FD22C08091E8008B778093E8000115C7
:103990001105A1F0F80180819181A80EB91EB182B4
:1039A000A08285E0F82E8F2DDF91CF911F910F918E
:1039B000FF90DF90CF90BF90AF9008950E94FE1DC2
:1039C0008823D1F2F82EEFCF8091F100F601819398
:1039D0006F012197FFEFAF1ABF0ACECFFC01809194
:1039E00084029091850286179707A0F061157105F2
:1039F00029F49091E8009E779093E80090E061159B
:103A0000710551F4911108C08091E80082FF34C023
:103A100080E00895BC01F2CF80917D028823C1F13E
:103A20008530C1F18091E80083FD30C08091E800CD
:103A300082FDEACF8091E80080FFE1CF8091F30022
:103A40002091F200382F6115710519F028303105E9
:103A500058F091E02830310509F090E02091E8001D
:103A60002E772093E800CBCF81918093F1006150B5
:103A700071092F5F3F4FE7CF80917D02882341F08E
:103A8000853041F08091E80083FFBECF81E008954A
:103A900082E0089583E00895FC0180918402909172
:103AA000850286179707A0F06115710529F48091AA
:103AB000E8008E778093E80090E06115710551F47D
:103AC000911108C08091E80082FF35C080E0089520
:103AD000BC01F2CF80917D028823C9F18530C9F104
:103AE0008091E80083FD31C08091E80082FDEACF3B
:103AF0008091E80080FFE1CF8091F3002091F200F7
:103B0000382F6115710519F02830310558F091E012
:103B10002830310509F090E08091E8008E7780939D
:103B2000E800CBCF84918093F10031966150710908
:103B30002F5F3F4FE6CF80917D02882341F0853093
:103B400041F08091E80083FFBDCF81E0089582E0DD
:103B5000089583E00895982F973028F08F70809310
:103B6000E90081E008959093E900242F762F50E03A
:103B7000981731F07091EC002091ED005091F00019
:103B800021FD02C09F5FE8CF3091EB003E7F309374
:103B9000EB003091ED003D7F3093ED003091EB0074
:103BA00031603093EB007093EC002093ED00509364
:103BB000F0002091EE0027FDE5CF80E00895809190
:103BC0007E0287FF13C08091E80082FF06C08091CB
:103BD000E8008B778093E80004C080917D0281111A
:103BE000F2CF089580917D028823D9F38091E80077
:103BF00080FFF8CF8091E8008E77ECCF2091E40031
:103C00003091E50095E6A9012091EC00822F8170AA
:103C100020FF06C08091E80080FF06C080E0089584
:103C20002091E80022FD1AC080917D02882389F04E
:103C3000853089F08091EB0085FD0FC02091E40074
:103C40003091E50042175307F9F29150E1F684E014
:103C5000089582E0089583E0089581E008950E9428
:103C60009D1E0E94A51EE0EEF0E0808181608083B1
:103C7000E8EDF0E080818F77808319BCA7EDB0E09C
:103C80008C918E7F8C9380818F7E808310927C02BA
:103C900008950F931F93CF93DF930E949D1E0E9460
:103CA000A51EC8EDD0E088818F77888388818068E1
:103CB000888388818F7D888319BC10927D02109241
:103CC000790210927B0210927A0200EE10E0F80165
:103CD00080818B7F808388818160888342E060E07F
:103CE00080E00E94AB1DE1EEF0E080818E7F80835A
:103CF000E2EEF0E080818160808380818860808353
:103D0000F80180818E7F8083888180618883DF9144
:103D1000CF911F910F910895E8EDF0E080818F7EA3
:103D20008083E7EDF0E080818160808384E082BF62
:103D300081E080937C020C94491EE8EDF0E08081E4
:103D40008E7F80831092E20008951092DA00109224
:103D5000E10008951F920F920FB60F9211242F9336
:103D60003F934F935F936F937F938F939F93AF9303
:103D7000BF93EF93FF938091E10082FF0BC080918E
:103D8000E20082FF07C08091E1008B7F8093E10019
:103D90000E9414218091DA0080FF19C08091D80020
:103DA00080FF15C08091DA008E7F8093DA008091C9
:103DB000D90080FF96C080E189BD82E189BD09B448
:103DC00000FEFDCF81E080937D020E948D1A8091DC
:103DD000E10080FF19C08091E20080FF15C0809152
:103DE000E2008E7F8093E2008091E2008061809308
:103DF000E2008091D80080628093D80019BC85E0F1
:103E000080937D020E949F1A8091E10084FF2BC065
:103E10008091E20084FF27C080E189BD82E189BDF5
:103E200089B5982F917080FFFBCF8091D8008F7D4E
:103E30008093D8008091E1008F7E8093E100809193
:103E4000E2008F7E8093E2008091E20081608093A7
:103E5000E20080917902882309F449C084E08093CC
:103E60007D020E94A01A8091E10083FF29C0809109
:103E7000E20083FF25C08091E100877F8093E1000D
:103E800082E080937D02109279028091E1008E7F22
:103E90008093E1008091E2008E7F8093E200809128
:103EA000E20080618093E20042E060E080E00E94F6
:103EB000AB1D8091F00088608093F0000E949E1AF4
:103EC000FF91EF91BF91AF919F918F917F916F91F2
:103ED0005F914F913F912F910F900FBE0F901F90C8
:103EE000189519BC10927D020E949B1A70CF809188
:103EF000E30087FD93E090937D02B3CF1F920F9272
:103F00000FB60F9211242F933F934F935F936F93AC
:103F10007F938F939F93AF93BF93CF93DF93EF9351
:103F2000FF93D091E900DF708091EC00C82FC17041
:103F300080FDC0E81092E9008091F000877F8093B7
:103F4000F00078940E94C21F1092E9008091F00066
:103F500088608093F000CD2BCF70C093E900FF9173
:103F6000EF91DF91CF91BF91AF919F918F917F9111
:103F70006F915F914F913F912F910F900FBE0F90D6
:103F80001F9018951F93CF93DF93CDB7DEB7AA97F5
:103F90000FB6F894DEBF0FBECDBF8EE792E0209142
:103FA000F100FC012193CF01F2E086389F07B9F7B9
:103FB0000E94B61A8091E80083FF1EC180917E02A4
:103FC00090917F029A3008F017C1E92FF0E0EE548B
:103FD000FE4D0C943021803899F0823809F00CC1E4
:103FE000809182028F70873008F006C18093E900CB
:103FF0008091EB0085FB882780F91092E90006C0CC
:1040000080917A0290917B02911182609091E800F8
:10401000977F9093E8008093F1001092F1008091D7
:10402000E8008E77E5C0882309F4D3C0823009F018
:10403000E3C0809180028111D6C0809182028F708E
:104040002FEF280F263008F0D7C08093E900209189
:10405000EB0020FFC8C0933031F48091EB00806208
:104060008093EB00C0C09091EB0090619093EB00C7
:1040700021E030E001C0220F8A95EAF72093EA00A0
:104080001092EA008091EB008860EACF8111B4C001
:10409000109180021F778091E3008078812B8093BC
:1040A000E3008091E800877F8093E8000E94DF1D95
:1040B0008091E80080FFFCCF8091E30080688093CE
:1040C000E30082E0111183E080937D0295C0805867
:1040D000823008F091C080918002909181028C3DE5
:1040E00023E09207A1F583E08A838AE289834FB7B0
:1040F000F894DE01139620E03EE051E2E32FF0E079
:1041000050935700E49120FF03C0E295EF703F5FAA
:10411000EF708E2F90E0EA30C0F0C7968D939D939C
:104120002F5F243159F74FBF8091E800877F80933C
:10413000E8006AE270E0CE0101960E94EE1C8091D8
:10414000E8008B778093E80057C0C096E7CF609176
:10415000820270918302AE014F5F5F4F0E94DB1BB2
:10416000BC01892B09F448C09091E800977F909397
:10417000E80089819A810E944C1DE1CF8038E1F5E9
:104180008091E800877F8093E80080917902809396
:10419000F10045CF811130C090918002923060F5DE
:1041A0008091E800877F8093E800909379020E94D5
:1041B000DF1D80917902882311F084E005C0809191
:1041C000E30087FDFACF81E080937D020E94A21A6E
:1041D00013C080918002813079F481E0933009F03E
:1041E00080E080937B021092E9008091E800877F55
:1041F0008093E8000E94DF1D8091E80083FF0AC0E1
:104200008091E800877F8093E8008091EB008062D6
:104210008093EB00AA960FB6F894DEBF0FBECDBF19
:10422000DF91CF911F9108950895CF9380917D02E2
:104230008823A1F0C091E900CF709091EC00892F04
:10424000817090FD80E8C82B1092E9008091E80011
:1042500083FD0E94C21FCF70C093E900CF910895E3
:10426000EE0FFF1F0590F491E02D09946927962722
:1042700069277827872778270895F999FECF92BD77
:1042800081BDF89A992780B50895A8E1B0E042E091
:1042900050E00C947121262FF999FECF92BD81BD7B
:1042A000F89A019700B4021639F01FBA20BD0FB674
:1042B000F894FA9AF99A0FBE08950396272F0E9450
:1042C0004C210E944B21252F0E944C21242F0C941D
:1042D0004C210196272F0E944C210C944B21DC018C
:1042E000CB01FC01F999FECF06C0F2BDE1BDF89A01
:1042F000319600B40D9241505040B8F70895F894AB
:10430000FFCF77088408AB08B708C208CD08D008EB
:10431000D008D00819091C09D308D708DF08EC0811
:10432000F908FC08FF080C090A0F0A0F620F620F58
:10433000B40F370F370F370FD00F5C106B106B10A7
:10434000C710370F370FD010411141114A114A11D0
:104350004C114A114A114A114111411151114A118E
:104360004A115111EB1F1320FC201320FC20462082
:084370006720FC20BE20CA20DA
:104378001802E519231AE8191F1A1B1A01E200E9A5
:1043880000EA00B500B600B700CD008301CC008A72
:104398000192019401210223022402250226022708
:1043A800022A02B300B4006F0070008182839392E6
:1043B8009190946697C6343536323331F7F6F5F472
:1043C800E200E900EA00B500B600B700CD008301BD
:1043D800CC008A01920194012102230224022502C1
:1043E800260227022A02B300B4006F0070008182FF
:1043F8008340226DC00431045304D603EF030F0435
:00000001FF
