:100000000C9465020C94AC020C94AC020C94AC02FF
:100010000C94AC020C94AC020C94AC020C94AC02A8
:100020000C94AC020C94AC020C940E200C94E220C4
:100030000C94821A0C94AC020C94AC020C94AC029A
:100040000C94AC020C94AC020C94AC020C94AC0278
:100050000C94AC020C94D91A0C94AC020C94AC0223
:100060000C94AC020C94AC020C94AC020C94AC0258
:100070000C94AC020C94AC020C94AC020C94AC0248
:100080000C94AC020C94AC020C94AC020C94AC0238
:100090000C94AC020C94AC020C94AC020C94AC0228
:1000A0000C94AC020C94AC020C94AC0229001E001F
:1000B0001F0020002100220023002400250026002C
:1000C00027002D002E002B0014001A000800150038
:1000D00017001C0018000C00120013002F00300045
:1000E000005704001600070009000A000B000D006D
:1000F0000E000F00330034002800E1001D001B003B
:100100000600190005001100100036003700380005
:100110004C006400E000E300E20001512C00D95CD7
:10012000E6000158E400000000002A00320035001B
:100130003A003B003C003D003E003F0040004100D3
:10014000420043004400450001000100010052004C
:10015000010001000100010046004700480068005E
:10016000690001000100500051004F000100010032
:1001700001004A004B002A00010001000100AE000E
:10018000AC00AB00AA00A900A8004C004D004E0036
:10019000010049000100010001000100010001000F
:1001A00001000251010001000000000001006A008E
:1001B0000100010001000100010001000100010037
:1001C0000100010001000100010001000100010027
:1001D0000100010001000100010001000100010017
:1001E0000100010001000100010001000100010007
:1001F00001000100010001000100010001000100F7
:1002000001000100010001000100010001000100E6
:1002100001000100010001000100010001000100D6
:100220000100010001000351010000000000010075
:100230000100005C0100010001000100010001005B
:1002400001000100010001000100010001000100A6
:100250000100010001000100010001000100010096
:100260000100010001000100010001000100010086
:100270000100010001000100010001000100010076
:100280000100010001000100010001000100010066
:100290000100010001000100010001000100010056
:1002A0000100010001000100010001000000000048
:1002B0000100010000000000000000002A2B2800BF
:1002C0000000000000000000000000000000002905
:1002D000000000002C1E3420212224342627252E45
:1002E000362D3738271E1F2021222324252633337D
:1002F000362E37381F0405060708090A0B0C0D0EA9
:100300000F101112131415161718191A1B1C1D2F74
:100310003130232D350405060708090A0B0C0D0E94
:100320000F101112131415161718191A1B1C1D2F54
:100330003130354C000000000000000000000000DB
:1003400000000000000000007E0F00D4FFFFFFC788
:100350000000007804033000000024034400610022
:100360007A00200043007500730074006F006D0078
:1003700020003600330020004B00650079000000AB
:100380000803440061007A00000004030904090224
:100390005B00030100A0FA09040000010301010051
:1003A0000921110100012240000705810308000A0C
:1003B00009040100020300000009211101000122CB
:1003C0002200070582032000010705030320000126
:1003D00009040200010300000009211101000122AB
:1003E0006D000705840320000A12011001000000BF
:1003F00008EDDE69690100010203010660FF096181
:10040000A1010962150026FF0095207508810209E7
:1004100063150026FF00952075089102C0050109AB
:1004200080A101850319012AB700150126B700959F
:100430000175108100C0050C0901A1018504190195
:100440002AA002150126A002950175108100C005A1
:10045000010906A1018505050719E029E715002511
:10046000019508750181020507190029EF1500257E
:100470000195F07501810205081901290595057599
:10048000019102950175039101C005010906A101C1
:10049000050719E029E71500250195087501810276
:1004A0009501750881010507190029FF150026FF30
:1004B000009506750881000508190129059505753F
:1004C000019102950175039101C011241FBECFEF68
:1004D000DAE0DEBFCDBF04B603FE27C08091A202E2
:1004E0009091A302A091A402B091A5028730904BF5
:1004F000A740B04BD1F41092A2021092A302109226
:10050000A4021092A50214BE84B7877F84BF0FB6E1
:10051000F894A895809160008861809360001092A3
:1005200060000FBEE0E0F8E3099511E0A0E0B1E063
:10053000E0E4F6E402C005900D92AA3AB107D9F7BB
:1005400022E0AAEAB1E001C01D92A23AB207E1F7A7
:100550000E94D31C0C94E3220C940000809117019C
:10056000811103C081E00E94B11610921701089515
:10057000FC018081833031F481E08093170189E3AD
:100580000C9413101092170181E00C94901681E0E6
:10059000089581E008950C94C70208950C94CD024B
:1005A0001F93CF93DF9300D000D00F92CDB7DEB76B
:1005B00049835A836B833091C40189819A813111B7
:1005C0001DC06623B9F02223A9F00E948017182FBE
:1005D000682F89819A810E942C1769817A81812FE5
:1005E0000F900F900F900F900F90DF91CF911F9170
:1005F0000C94FC090E945817182FEFCF0E94801707
:1006000069817A81EDCFFC01262F40815181628181
:10061000738184810C94D002CF93DF93EC0160E06E
:100620000E940303BE01DF91CF910C94CE02FF9292
:100630000F931F93CF93DF93E82FF0E0EC54FD4F1F
:10064000F490C82FC695C695C695D0E0FE01EC5B28
:10065000FC4F0491877010E0082E02C01595079595
:100660000A94E2F701701127CC5CDC4FFE01C491C3
:10067000D0E002C0D595C7958A95E2F7C170DD2715
:100680000115110519F081EE0E94A50F209719F0B0
:1006900086EE0E94A50F8F2D0E941310CD2B19F00E
:1006A00086EE0E94EB0F012B41F081EEDF91CF919E
:1006B0001F910F91FF900C94EB0FDF91CF911F9141
:1006C0000F91FF900895EF92FF920F931F93CF9396
:1006D000DF93EC01162F0AE08881882309F454C0C7
:1006E000813009F04EC08981813099F47E0122E089
:1006F000E20EF11C8A810E941310E7012196812FDE
:10070000815050F3EFE9FFE03197F1F700C00000AE
:10071000F7CF823041F47E0182E0E80EF11C8A813D
:100720000E94A50FEACF833041F47E01E2E0EE0E95
:10073000F11C8A810E94EB0FE0CF843011F02196EA
:10074000DDCF2A81229690E080E0AE014F5F5F4FBF
:100750002053330B2A30310548F0019778F2EFE946
:10076000FFE03197F1F700C00000F7CF089FB0011C
:10077000099F700D1124C901860F971F2981EA0175
:10078000E4CF0E941703BACFDF91CF911F910F9151
:10079000FF90EF90089560E00C9463038F929F9216
:1007A000AF92BF92CF92DF92EF92FF920F931F937F
:1007B0006B017C0181E090E0A0E0B0E04C015D01C4
:1007C00004C0880C991CAA1CBB1C4A95D2F7B50121
:1007D000A4014C015D0104C0880C991CAA1CBB1C1F
:1007E0002A95D2F7482959296A297B2904C0880FFC
:1007F000991FAA1FBB1F0A95D2F78A019B010C21E2
:100800001D212E213F21041715072607370789F4DC
:100810008C299D29AE29BF29BC01CD011F910F91C3
:10082000FF90EF90DF90CF90BF90AF909F908F9010
:10083000089580959095A095B0958C219D21AE212D
:10084000BF21EACF0F93382F262F60912A02709193
:100850002B0280912C0290912D02042F432F0E9495
:10086000CE030F910C946A160E94101B0E94CD18A3
:10087000811102C00E946A190C94A0060E94F10D19
:100880000C94A30608950E9493120E9442042FEF35
:1008900084E39CE0215080409040E1F700C00000DC
:1008A0000C94FD1A0F931F93CF93DF93EC0161E03B
:1008B0000E9403038C01BE010E94510DBE01C801BC
:1008C0000E943308882389F1BE01C8010E94CB022F
:1008D000882359F1BE01C8010E94970D882329F190
:1008E000BE01C8010E94520B8823F9F0BE01C80165
:1008F0000E94A40B8823C9F0BE01C8010E94C70C46
:10090000882399F08A81882339F001158CE518072E
:1009100051F00E3D1C4579F0CE01DF91CF911F9132
:100920000F910C94C9020E94430480E0DF91CF91A3
:100930001F910F9108950E946A19F7CF08950C94A2
:100940009E0481E008950C94A104CF93C82F0E94C7
:100950009F048C2FCF910C94A30490E080E0089525
:100960000895FC01EE0FFF1FEC5AFC4F8591949106
:100970000895CF93DF930E94FC090E94C505EC0106
:10098000811520E5920708F041C0811530E49307F6
:1009900008F0B4C0803E910518F5803C910508F040
:1009A0009DC0883A910570F4853A910508F08EC093
:1009B00081309105F9F00097E9F00497D8F4D0E080
:1009C000C0E018C08F3B9105D0F7C85AD0E0CC0FDB
:1009D000DD1FCA5DDE4F0990D881C02DD4640AC0E6
:1009E0008115904258F4C11581E0D80718F4C83E2B
:1009F000D10528F7CE01DF91CF910895C11590E37D
:100A0000D90708F071C0CE019F706AC0811525E535
:100A1000920758F5811534E5930708F09EC08115BB
:100A200042E5940750F4C11581E5D80708F469C080
:100A3000DC2FCC27C16FD06ADDCF982F9695969585
:100A40009E0123703327C115D34508F077C0C1E05C
:100A5000D0E002C0CC0FDD1F2A95E2F720E2929F82
:100A6000C0011124C82BD92B67C0C11589E5D8074F
:100A7000A8F4C11598E5D90708F074C0C11526E59A
:100A8000D20708F09CCF8C2F0E945C06C82FD0E0C4
:100A9000DC2FCC27CC27DF71D062ACCFC1153AE573
:100AA000D30708F464C0CE0190568115904208F037
:100AB00086CF8D2F8F710E945C0690E0982F88273B
:100AC00088279F719C012C2BE901E6CFC55AD0E005
:100AD000CC5ADE4FC881D0E0D0648CCF805C9109C5
:100AE0000E94B104EC0186CFCE019927D3FF03C049
:100AF000EC01D86C7FCFEC01D06C7CCFDF70D06A7A
:100B000079CFCE01E4E096958795EA95E1F7837079
:100B10002C2F26952695237090E2299F9001112471
:100B2000382B8C2F8370C1E0D0E002C0CC0FDD1FCA
:100B30008A95E2F7C22BD32BDC685CCFC1E0D0E012
:100B400002C0CC0FDD1F2A95E2F730E2939FC0016F
:100B50001124C82BD92BDA684DCFD82FCC27C46FDE
:100B6000D06A48CFDC2FCC27C06FD06A43CF8C2F00
:100B70008F700E945C0634E0D695C7953A95E1F7F0
:100B8000CF709C2FEC01D06935CF82389105B1F13F
:100B9000B0F48133910509F475C048F489329105A8
:100BA00009F469C08A32910509F473C00895853348
:100BB000910509F459C08933910501F10895833EE7
:100BC0009105A9F138F4803E9105F9F0823E910536
:100BD00049F10895863E9105A9F1873E9105C9F135
:100BE000843E910519F52091940221FF1FC0809148
:100BF000930284FD14C087EE90E008952091930243
:100C00002370A1F080EE90E008952091930220FDE2
:100C100047C03091940230FF09C024FF44C090E0E7
:100C200080E004C02091930222FDF7CF0895209127
:100C3000930222FD3BC03091940230FDE3CF24FFAC
:100C4000F5CFEDCF2091930223FFF0CF24FDE7CF26
:100C5000D2CF2091930223FD2CC03091940231FF1A
:100C6000EECF84EE90E008952091930225FFDECF31
:100C700089E290E008952091930225FFD7CF85E384
:100C800090E008952091930226FFD0CF8AE290E071
:100C900008952091930226FFC9CF81E390E0089543
:100CA00089E390E0089583EE90E0089582EE90E06D
:100CB000089586EE90E008959091930292FF06C009
:100CC000282F28712830F9F4877F846093FF06C0AD
:100CD000282F28712831F1F4877E846120919402B5
:100CE00020FF06C0382F38713830D9F4877F8160F3
:100CF00021FF06C0282F28712831D1F4877E816119
:100D000094FD877E0895282F24712430F9F68B7F77
:100D10008860DCCF282F2471243101F78B7E886115
:100D2000DDCF382F3171313019F78E7F8860E0CFF9
:100D3000282F2171213121F78E7E8861E1CF08951E
:100D40000C949F0608950C94A206E82FF0E0EE0F95
:100D5000FF1FEB57FD4F808191810895089580EA30
:100D60008A95F1F70895CF93DF93A4E6B1E049E6C1
:100D700051E0C1E0D0E08D91E82FE295EF70F0E016
:100D800061A18F709E0101C0220F8A95EAF7922F10
:100D90009095962391A382A1822B82A34A175B0789
:100DA00051F7A7E5B1E061E070E08D91E82FE295A1
:100DB000EF70F0E041A18F709B0101C0220F8A9576
:100DC000EAF7922F9095942391A382A1822B82A37C
:100DD00081E0A436B80749F710927C0210927B029A
:100DE000109286021092850210927E0210927D026D
:100DF00010928802109287021092800210927F0255
:100E000010928A021092890210928202109281023C
:100E100010928C0210928B02109284021092830224
:100E200010928E0210928D0285E00E94A207DF913F
:100E3000CF910C9434048F929F92AF92BF92CF9235
:100E4000DF92EF92FF920F931F93CF93DF9384E68D
:100E5000E82E81E0F82E0BE712E0912CAA24A3944F
:100E6000B12CF70181917F01C82FC295CF70D0E0DE
:100E700099A18F70650101C0CC0C8A95EAF7892F82
:100E80008C2989A38AA18C2C809488218AA30E9412
:100E9000AF06E7E5F1E050E040E030E020E06191AE
:100EA000A62FA295AF70B0E090968C9190E06F70F5
:100EB00002C0959587956A95E2F780FD3EC0C50111
:100EC000042E02C0880F991F0A94E2F7282B392BB1
:100ED0004F5F5F4F4D30510511F789A1882289A2DC
:100EE0008AA1C82ACAA2F8018081918128173907EE
:100EF00039F13183208381E0982A0E5F1F4FF9E694
:100F0000EF16F1E0FF0609F0ACCF292D45E065E8CA
:100F100072E08BE792E00E94A3070E943E04892DB5
:100F2000DF91CF911F910F91FF90EF90DF90CF90C5
:100F3000BF90AF909F908F90089590E080E0C6CFD3
:100F400080E0DACF0895FF920F931F93CF93DF9342
:100F5000F82E092F162FD72FC42F222349F081E016
:100F60008093AC010E94B21A9093AB018093AA01C6
:100F70008091AC018823A1F08091AA019091AB01EE
:100F80000E94CA1A069760F0EF2DF02FA12FBD2FF7
:100F900090E080E0D0E08C179D0744F01092AC0107
:100FA000DF91CF911F910F91FF9008952191319181
:100FB0002D933D930196EFCF82E290E00E94A12213
:100FC000803289F483E290E00E94A122813159F4B9
:100FD00084E290E00E94A12291E0893009F090E043
:100FE000892F8170089580E0FCCFCF93C82F6FEFD9
:100FF000811160E282E290E00E94AF226FEFC111A6
:1010000061E183E290E00E94AF226FEFC11169E0DD
:1010100084E290E0CF910C94AF2280E00E94F5072B
:101020000C94C718089585E290E00E94A122682FD1
:1010300070E090E080E0089585E290E00C94AF22AB
:101040000E9412080E94DC0781110CC060E070E071
:10105000CB010E941C080E9474090E94600A81E072
:101060000C94F5070895CF93FB01C281CC2309F1BD
:101070009C0122513F452031310520F582510E94CB
:10108000700AC0E08C2FCF91089581E00E949016E5
:1010900043E062E081E00E942204F3CF81E00E94FD
:1010A000B11643E062E081E00E942204EBCF82E0CF
:1010B000F6CF8031FFE59F0789F381319F45B9F372
:1010C000C1E0E0CF8031EFE59E07F9F281319F4525
:1010D000C9F682E0DBCF2FEFFC0120830895EF9269
:1010E000FF920F931F93CF93DF93EC01062FE881BC
:1010F000E150E33108F05EC0F0E0EB51FD4D0C949F
:101100009422198289E08A83602FCE01DF91CF91EA
:101110001F910F91FF90EF900C94C71B8981823033
:1011200069F0833071F08130D9F40E94BE1A0E94B8
:101130009A226A837B838C839D83E6CF0E94130867
:10114000F6CF7E0110E0812F0E94A506F701928361
:1011500083831F5FF2E0EF0EF11C1530A1F7D4CFAF
:10116000602FCE010E946B08CFCF89818230C1F7FA
:101170006A817B818C819D810E949A220E941C0839
:10118000C3CF4B816A8189810E94460998278927AC
:1011900098279D838C83B8CF2C813D8132272327CC
:1011A00032274B816A8189810E945F09ADCF0E94FD
:1011B0007409AACF8FEF8883A7CF0E94090A898379
:1011C000A3CF0E940B0A9827892798279A8389839F
:1011D0009BCF6B8170E089819A81AE014C5F5F4F3C
:1011E0009827892798270E940E0A8ECF6B8170E07E
:1011F00089819A81AE014C5F5F4F98278927982794
:101200000E94350A81CF0E94600A7ECF0E94340975
:10121000D6CF6B8170E089819A81AE014C5F5F4FC0
:101220009827892798270E94AC096ECF6B8170E0C0
:1012300089819A81AE014C5F5F4F98278927982753
:101240000E94D20961CF0E940D085ECF0E94C71B89
:101250002FEF81EE94E0215080409040E1F700C0F4
:1012600000000E94FD1A50CF84E0089550E0440F22
:10127000551F9AE1699F400D511D112492E8899FE5
:10128000400D511D1124CA01869608950F931F9396
:10129000CF93DF930E9436098C010E94A122C82FB0
:1012A000D0E0DC2FCC27C80101960E94A1229E012C
:1012B000282BC901DF91CF911F910F9108950F93B2
:1012C0001F93CF93DF93122F032F0E943609EC0157
:1012D000602F0E94AF22612FCE010196DF91CF9146
:1012E0001F910F910C94AF22AF92BF92CF92DF92D9
:1012F000EF92FF921F93CF93DF938CEAC82E80E08A
:10130000D82ED0E07601C0E014C0F50125913491CB
:10131000412F6C2F8D2F0E945F0982E0A80EB11C17
:101320001F5F1D3091F78AE1E80EF11CCF5FC530D9
:1013300019F0570110E0E9CFDF5F82E8C80ED11C39
:10134000D43001F7DF91CF911F91FF90EF90DF90A4
:10135000CF90BF90AF900895EF92FF920F931F939D
:10136000CF93DF93EC018A017C01E60EF71ECE01DC
:101370008696CE15DF0539F4DF91CF911F910F913D
:10138000FF90EF900895C83022E0D20740F40E9409
:10139000A122F80180830F5F1F4F2196E8CFF8014B
:1013A0001082F9CFCF92DF92EF92FF920F931F93AB
:1013B000CF93DF937C016A018C01060F171FEC01AC
:1013C000CE018696C017D10749F4DF91CF911F91C6
:1013D0000F91FF90EF90DF90CF900895C83022E0FA
:1013E000D20740F4FE01EE19FF09EC0DFD1D6081EE
:1013F0000E94AF222196E4CF462F843038F4753016
:1014000028F46D3018F4672F0C94460990E080E0C2
:10141000089580E1089582ED91E00895EF92FF92A2
:101420000F931F93CF93DF93EC018A017C01E60EAB
:10143000F71ECE01825D9D4FCE15DF0539F4DF9199
:10144000CF911F910F91FF90EF900895C23D21E041
:10145000D20740F40E94A122F80180830F5F1F4F42
:101460002196E7CFF8011082F9CFCF92DF92EF9269
:10147000FF920F931F93CF93DF937C016A018C013E
:10148000060F171FEC01CE01825D9D4FC017D107DB
:1014900049F4DF91CF911F910F91FF90EF90DF9072
:1014A000CF900895C23D21E0D20740F4FE01EE192D
:1014B000FF09EC0DFD1D60810E94AF222196E3CF54
:1014C000CF93DF93CEE2D2E060E0CE010E94AF2264
:1014D0002196C11584E0D807B9F7DF91CF9108951F
:1014E000DF92EF92FF920F931F93CF93DF9300D081
:1014F00000D0CDB7DEB7F82E8FE08F1540F08FEF1C
:1015000093E00E94A1220EE212E08823C1F00F9026
:101510000F900F900F90DF91CF911F910F91FF903F
:10152000EF90DF900895011584E0180781F3C8015A
:101530000E94A122811101C0FA940F5F1F4FF11088
:10154000F2CF19821A821B821C82DD24D394780187
:101550008FEFE81AF80AC8010E94A12289831A8233
:101560008823A9F29FEF980F933078F48A83D98269
:101570000E5F1F4FC7010E94A1228B83882339F27F
:10158000CE0101960E94CB03E2CF8701F9CFAF9243
:10159000BF92CF92DF92EF92FF920F931F93CF9360
:1015A000DF937C015B01C42FD22FFC018281882351
:1015B000F9F04093AF010E94B21A9093AE0180936C
:1015C000AD0180E28C0F883008F061C0C77081E007
:1015D00001C0880FCA95EAF7DF91CF911F910F9153
:1015E000FF90EF90DF90CF90BF90AF900C942610BB
:1015F0001091AF01141340C08091AD019091AE01E4
:101600000E94CA1A6C01B701C5010E940915C816CB
:10161000D90690F5C0E2CD0F1D17B9F080E2810F19
:10162000883040F4177081E001C0880F1A95EAF7FE
:101630000E942D10C83048F481E09D2F977001C0A2
:10164000880F9A95EAF70E942610802F0E941310A7
:10165000C830E8F4D77081E001C0880FDA95EAF766
:10166000DF91CF911F910F91FF90EF90DF90CF907E
:10167000BF90AF900C942D1080E28C0F883038F41E
:10168000C77081E001C0880FCA95EAF7E9CFDF9102
:10169000CF911F910F91FF90EF90DF90CF90BF906F
:1016A000AF9008950F939C01CB01233F4CE5340785
:1016B00059F1A8F4283DFCE53F0701F1293D4CE52F
:1016C0003407D1F1273D3C4591F406E221EE41EE8D
:1016D00067ED7CE50E94C70A80E00F910895253FE1
:1016E000FCE53F07E9F0B0F0263F3C45F9F0FC018E
:1016F0008281882339F11092AF01EFCF07E225EE06
:1017000045EE68ED7CE5E6CF06E221EE40EE63EFC4
:101710007CE5E0CF07E225EE44EE64EF7CE5DACF2E
:1017200006E221EE42EE65EF7CE5D4CF07E225EE3E
:1017300046EE66EF7CE5CECF08E221E045EE69EDAE
:101740007CE5C8CF81E0C9CFCF93DF93EC01FB01EB
:101750008281882309F419C1C230FCE5DF07C0F19A
:10176000C6319CE5D90730F09E012A5F3C452930FF
:10177000310570F50E94E0189093940280939302D3
:10178000C031ECE5DE0709F4CFC008F05BC0C8301B
:101790008CE5D80709F4B6C088F5C430ECE5DE075F
:1017A00009F4A8C0C0F4C2308CE5D80709F49CC085
:1017B000809193028260C330DC4509F498C0809127
:1017C0009302909194020E94EE180E94931280E07E
:1017D000DF91CF910895809193028061C630ECE54E
:1017E000DE0709F484C0809193028860C730DC452D
:1017F00008F47DC080919302806279C0CC308CE582
:10180000D80709F489C070F4809193028C60CA30C3
:10181000ECE5DE0709F46BC008F478C08091930210
:101820008E7F65C0CE308CE5D80709F479C08091F1
:1018300093028B7FCF30DC4508F459C0809193022E
:101840008F7E55C0CB3FECE5DE0709F457C030F57D
:10185000C3318CE5D80709F46FC078F4C131ECE5E9
:10186000DE0709F465C0C231DC4509F0A8CF0E944B
:101870009312809193028F773AC0C5318CE5D807D7
:1018800009F462C008F476C0809194028160CA3F76
:10189000DC4509F094CF8093940291CFCF3FFCE5D3
:1018A000DF0709F44DC088F4809194028D7FCD3F0D
:1018B0009CE5D90781F3809194028E7FCE3FDC4571
:1018C00050F3809194028360E6CFC130FDE5DF07DD
:1018D00009F459C008F444C080E0C230DD4509F085
:1018E0006ECF0E946C196BCF8091930281608093C0
:1018F000930265CF809193028460F9CF8091940226
:101900008260C9CF809193028064F1CF0E949312CC
:10191000809193028068EBCF809193028D7FE7CF17
:1019200080919302877FE3CF809193028F7DDFCFF9
:10193000809193028F7BDBCF80919302837FD7CFFF
:10194000809194028C7FA7CF8091930282FB99278C
:1019500090F921E0922790FB82F990FB83F9C7CFA1
:1019600080919402982F909591708E7F892B90FB97
:1019700081F991CF0E94931290919302892F97FB46
:1019800087F98058B4CF81E0ACCF81E021CFCF93ED
:10199000DF93EB0186319C4511F50E9415189A8161
:1019A000992399F08A7A91E009F490E09093B0013C
:1019B000811109C089E20E94F0170E94641880E03A
:1019C000DF91CF91089585E3F6CF8091B001811129
:1019D00004C089E20E94F717F0CF85E3FBCF81E0D6
:1019E000EFCFCF93DF93EC0181E0898B8F810E9451
:1019F000181888850E942B180E946418EA81FB81C0
:101A0000309739F06C897D89CE010696DF91CF91B0
:101A10000994DF91CF910895EF92FF920F931F9356
:101A2000CF93DF93EC018A85811134C0EB80FC8079
:101A300087E5F81A26E12E9DC0012F9D900D1124F7
:101A4000DC01A050BF4F1496ED91FC911597309793
:101A500031F054966D917C918A5F9E4F099586E195
:101A60008E9D80018F9D100D112400501F4FF80195
:101A700087810E941E18F80180850E9431180E94FB
:101A80006418188219861B861E821D821092B2016C
:101A90001092B101DF91CF911F910F91FF90EF90C4
:101AA0000895DF92EF92FF920F931F93CF93DF93EE
:101AB0007C01FB018281882391F0809118018F3F86
:101AC00071F0C0E0D1E010E000E0DD24D39480911B
:101AD0001801082E000C990B8017910744F4DF9130
:101AE000CF911F910F91FF90EF90DF9008958E811D
:101AF0008823C9F089859A858E159F0539F48091D0
:101B0000B1019091B2018E159F0569F0DF86FC86C8
:101B1000EB868989811103C0CE010E94F10CCE01B0
:101B200006960E940C0D0F5F1F4F6696D0CFEF9266
:101B3000FF920F931F93CF93DF937C0197558F3FB5
:101B4000910509F0D8F520911801022E000C330BF5
:101B50002817390714F480931801FB01228136E11C
:101B6000389F8001399F100D1124E801C050DF4FCC
:101B7000288B92818E81992349F1FA86E9868F5FBD
:101B80008E830E94B21A9E878D870E944B188F8386
:101B90000E94151888870E9428189885892B8887A5
:101BA000E881F981309731F06C897D89C8018A5FBD
:101BB0009E4F0995F092B201E092B10181E0DF9170
:101BC000CF911F910F91FF90EF9008958823B1F36B
:101BD0008989882399F3C8018A5F9E4F0E940C0D62
:101BE000EDCFCF92DF92EF92FF920F931F93CF939F
:101BF000DF938091180110E006E18F3FF1F5DF914E
:101C0000CF911F910F91FF90EF90DF90CF900895AB
:101C10000E9DF0010F9DF00D1124E050FF4FC28882
:101C2000D388C114D10439F470E060E081859285D5
:101C30000E9409156C010E9DE0010F9DD00D11242D
:101C4000C050DF4F8E818823B9F08D859E850E941C
:101C5000CA1AC816D90680F4109F70011124898908
:101C6000811105C0C70180509F4F0E94F10CC70130
:101C70008A5F9E4F0E940C0D1F5FE12EF12C809118
:101C80001801082E000C990B8E159F050CF6B7CF86
:101C90009093B8018093B7010895E091B701F09156
:101CA000B801309721F00190F081E02D099480E097
:101CB0000895E091B701F091B801309799F0209123
:101CC0002501222359F02091930227FF07C0DC0150
:101CD0002C9111962C93119725E02C930280F3817F
:101CE000E02D099408952091B5013091B60128178F
:101CF000390771F09093B6018093B501E091B70177
:101D0000F091B801309721F00680F781E02D099419
:101D100008952091B3013091B4012817390771F06B
:101D20009093B4018093B301E091B701F091B801B1
:101D3000309721F00084F185E02D0994089585B74E
:101D4000806885BF85B7806885BF08950895089528
:101D50000C94A60E08950C94AA0E0E949F0E0E9449
:101D6000A70E0C94A80E81E008950C94B30E0E9467
:101D7000A91A0E94B3060E9420080E94271BE3E9CB
:101D8000F2E0808180688083809193029091940238
:101D90000E94EE180C94AB0E9F92AF92BF92CF921E
:101DA000DF92EF92FF920F931F93CF93DF93CDB704
:101DB000DEB72A970FB6F894DEBF0FBECDBF0E94E4
:101DC0001B070E94B50E882309F46DC05AEBA52E9F
:101DD00051E0B52E10E000E0902E802F0E94A50665
:101DE0006C01F501E190F1905F01E816F90609F444
:101DF00054C08091570281FD0E94AE0697012C25A8
:101E00003D2580E0EE24E394F12CA9014E215F21D1
:101E1000452BE9F18E839F82CE20DF2081E0CD2803
:101E200009F480E088870E94B21A8160782F9A872F
:101E300089874E815F8168858A850E94760F000FB1
:101E4000111FF801E654FE4F80819181E826F926A2
:101E5000F182E0820E944D0E9091B9018917A1F1A3
:101E60000E944D0E8093B9012A960FB6F894DEBFFA
:101E70000FBECDBFDF91CF911F910F91FF90EF90DB
:101E8000DF90CF90BF90AF909F900C94A5048F5F90
:101E9000EE0CFF1C8D3009F0B8CF0F5F1F4F0530DF
:101EA000110509F099CF8FEF89838A831B820E94E5
:101EB000B21A8160782F9D838C8349815A816B810E
:101EC0008D810E94760FC6CF2A960FB6F894DEBF9A
:101ED0000FBECDBFDF91CF911F910F91FF90EF907B
:101EE000DF90CF90BF90AF909F900895CF93DF93F6
:101EF000CDB7DEB72B970FB6F894DEBF0FBECDBFC0
:101F00004F83588769877A878B871E821D8285E079
:101F1000FE013796DE01119601900D928A95E1F748
:101F200049815A816B817C818D819E812B960FB670
:101F3000F894DEBF0FBECDBFDF91CF910C940C158E
:101F4000FC01808191810C94C217CF93C82F882304
:101F500009F43FC08CEF8C0F813AA0F46C2F809174
:101F6000190190911A010E948519882329F08C2F5C
:101F70000E94F7170E9464188C2F0E94F017CF91CF
:101F80000C94641880E28C0F883048F4C77081E0AC
:101F900001C0880FCA95EAF70E941818F0CFEBE548
:101FA000EC0FE33040F4F0E0E956FE4F808190E022
:101FB000CF910C94730EC85AC73158F4EC2FF0E04F
:101FC000EE0FFF1FE759FE4F80819181CF910C9456
:101FD000890ECF910895882329F19CEF980F913AAB
:101FE00020F40E94F7170C94641890E2980F983030
:101FF00050F4877091E001C0990F8A95EAF7892F14
:102000000E941E18F0CF9BE5980F933020F490E0CB
:1020100080E00C94730E885A873120F490E080E0C1
:102020000C94890E0895CF93C82F0E94A50FC93331
:1020300049F42FEF87EE93E0215080409040E1F784
:1020400000C000008C2FCF910C94EB0F882321F05F
:102050000E9418180C9464180895882321F00E9497
:102060001E180C9464180895BF92CF92DF92EF92DD
:10207000FF920F931F93CF93DF936C01D62FC72F3F
:10208000FC01058102950F70128111110E94381810
:102090000E940E18E82E882391F01123D1F08C2F86
:1020A000807F803421F080E28D0F883090F082E0D4
:1020B0000E94AF180E940E1891E0E82EE926BC2E6F
:1020C000B2949FE0B922EB2DF0E0E850FD4D0C9466
:1020D0009422E12CF4CF0C2F0F70C07F11F00295E9
:1020E000007F1123A9F0002359F080E28D0F883082
:1020F00010F0D11109C0802F0E9418180E94641896
:102100008D2F0E94A50F14C0802F0E942B18F6CF90
:102110008D2F0E94EB0F002359F080E28D0F883045
:1021200010F0D1112CC0802F0E941E180E9464183C
:102130002B2D2850330B2430310520F40E944D0EF6
:102140000E94A504EE2009F493C10E940A1880FDA4
:102150008FC1F60112820E9404180E949016C601D7
:102160000E9459120E940418DF91CF911F910F9184
:10217000FF90EF90DF90CF90BF900C94B116802F1E
:102180000E943118D3CFFC2FFF70FF2EC07FC032CA
:1021900019F0F29480EFF822DD2369F0D13049F193
:1021A000112391F1002351F1F601858180FFA8CF21
:1021B0008F70858323C0112381F0011106C00E9416
:1021C0004B188F290E942610B3CF0130C1F70E940F
:1021D0004B188F290E945118ABCF011106C00E94E5
:1021E0005A188F2D0E942D10A3CF013009F4A0CFD3
:1021F000F6CF112329F0043008F09ACF8F2DE2CFCB
:10220000033008F095CFEDCF002359F3D93349F4CB
:10221000FFEF27EE33E0F15020403040E1F700C0FF
:1022200000008D2F0E94EB0F83CF8C2F8695869513
:10223000837069F0813009F07BCF8D2F9C2F9370D4
:10224000111102C090E080E00E94890E71CF8D2FA5
:102250009C2F9370111102C090E080E00E94730ED9
:1022600067CF8C2F837009F041C0111161CF4D2FC2
:10227000429546954770440F440F0D2F0F7010E0A4
:1022800030E020E0042E04C0000F111F221F331F76
:102290000A94D2F760E070E0CB01D4FF0FC06FE08A
:1022A00070E080E090E004C0660F771F881F991FE0
:1022B0004A95D2F76095709580959095C695C6958C
:1022C000C370602B712B822B932BC23049F058F4D2
:1022D000C13019F00E9442162BCF0E94301628CF31
:1022E0000E94541625CF0E942E1622CF86951123C8
:1022F00011F08C2F8170882309F41ACF4D2F42954D
:1023000046954770440F440F0D2F0F7010E030E0DA
:1023100020E0042E04C0000F111F221F331F0A9457
:10232000D2F760E070E0CB01D4FF0FC06FE070E047
:1023300080E090E004C0660F771F881F991F4A95C0
:10234000D2F76095709580959095C695C695C370A7
:10235000602B712B822B932BC23049F058F4C13083
:1023600019F00E940717E4CE0E94F516E1CE0E94F4
:102370001917DECE0E946A16DBCECF70112329F02A
:102380008C2F0E9490168D2F1DCF8D2F0E942D1007
:102390008C2F0E94B116CCCED23F89F160F4D03F91
:1023A000C9F0D13F29F1112309F442C00111A8CE8F
:1023B0008C2F8F7121C0D33F39F1D43FA1F7112366
:1023C00069F1CF718C2F0E94901663E08C2F0E94D0
:1023D0009A18AECE112341F0033008F0A9CE8C2F0D
:1023E0008F710E94D416A4CE043008F0A1CEF7CF8E
:1023F0008C2F8F71112369F20E94901699CE8C2F29
:102400008F711123C9F3C5CF112329F08C2F8F7140
:102410000E947B168DCE0E9476168ACE81E00E94A5
:10242000AF18023008F484CE82E00E94AF1880CE4C
:10243000002359F0D93309F0F4CE8FEF97EEE3E0A3
:1024400081509040E040E1F7EACE8C2F8F71A1CF10
:102450004C2F4F706D2FC6010E94AD040E94A6152F
:1024600067CE4C2F4F706D2FC6010E94B00460CE16
:10247000DF91CF911F910F91FF90EF90DF90CF9060
:10248000BF9008950F931F93CF93DF93EC01688162
:1024900079818A810E94CC178C010E942B170E949F
:1024A0002D16B801CE01DF91CF911F910F910C94A1
:1024B0003410CF93DF93EC018B819C81892B29F021
:1024C0008881998189238F3F59F4DF91CF910895B5
:1024D000CE010E944212CE01DF91CF910C940C03E9
:1024E000CE010E9452048111F3CF0E940E1888235E
:1024F00061F38A81882349F382E0DF91CF910C94C4
:10250000AF180E9438180E9448180E94641890E082
:1025100080E00E94730E90E080E00C94890E0E948F
:10252000FE170C9481120E9425180C948F12E92F2B
:10253000E295EF70E250EE3070F4F0E0E85FFC4DB1
:102540000C949422803F19F020F4883E20F481E01E
:102550000895843FE1F380E00895883EC0F3813F11
:10256000D1F7F5CF93FB882780F908950E94C21711
:102570000C949712CF93DF9300D000D00F92CDB779
:10258000DEB70F900F900F900F900F90DF91CF91CB
:102590000895CF93DF9300D000D000D0CDB7DEB741
:1025A00026960FB6F894DEBF0FBECDBFDF91CF9158
:1025B00008951F93CF93DF93C091C50116E08091DA
:1025C000C6018C1304C0DF91CF911F910895D0E014
:1025D0001C9FF0011D9FF00D1124E953FE4F408117
:1025E000518162817381848195810E94C9122196F3
:1025F000C770E5CF4091F7015091F8016091F90162
:102600007091FA018091FB019091FC010C94C91228
:102610001F93CF93DF938091FC01807FA9F4809179
:10262000F901882389F08091C501C091C6016091AC
:10263000F7017091F801A091FA01B091FB01D62F3A
:10264000D72316E0C81304C0DF91CF911F910895DE
:1026500090E0109711F0DF3F19F401968770F2CFE8
:10266000189F9001199F300D1124F901E953FE4F75
:1026700041814713F2CF40814613EFCF4281411190
:10268000ECCF438154814A1B5B0B4F3A510528F72D
:102690008091FC018F7080618093FC01F901E4530B
:1026A000FE4F80818F708061808387EF91E00E9470
:1026B0005912DF91CF911F910C94D912AF92BF9212
:1026C000CF92DF92EF92FF920F931F93CF93DF93FE
:1026D000CDB7DEB761970FB6F894DEBF0FBECDBFA2
:1026E0008C0185E0F801DE011D9601900D928A951E
:1026F000E1F7F80140815181E28087EFC82E81E047
:10270000D82E6091FA017091FB016115710509F4F1
:1027100061C19091F7012091F801892F82238F3FA9
:1027200009F458C1A380B480F090F901F501E61BCB
:10273000F70BFF2009F4FCC08091FC01382F307F9B
:10274000EF3AF10508F0B2C0311179C0FE2C251323
:1027500023C0941321C0E1101FC08F70806180934B
:10276000FC010E94FA12C6010E9459128091FC01DC
:10277000F80185838F2D61960FB6F894DEBF0FBEEA
:10278000CDBFDF91CF911F910F91FF90EF90DF9020
:10279000CF90BF90AF900895AB2829F0842F852368
:1027A0008F3F09F033C180E0F82FF170DF2E80FFFA
:1027B0003CC08091C5012091C60136E0821315C04E
:1027C0004D875E878D859E850E94C217292F229591
:1027D0002F702230F0F0243018F59F70F1F0F801DE
:1027E0009581907FD1F4D12C1EC090E0389FF001EC
:1027F000399FF00D1124E953FE4F6181651306C026
:102800006081641303C062816E110FC001968770EE
:10281000D5CF9F7011F0882331F3805E883018F394
:10282000C8010E945912FD2CA5CFEE2009F4A2CFB9
:102830008091FC0181608093FC01F12C9BCF2513DA
:1028400006C0941304C0F801EE2009F48DC04D8732
:102850005E878D859E850E94B612882319F1EE2031
:1028600009F18091FC01803270F02091F7013091E4
:10287000F80138872F831986BB86AA868C87CE01FC
:1028800007960E94591286E0F801A7EFB1E0019087
:102890000D928A95E1F70E9408130E94FA12FF2414
:1028A000F39468CFC8010E945912F9CF311113C0B7
:1028B0007A2DB98AA88A6E2D89890E94BA1287EF6B
:1028C00091E00E94591286E0F60111928A95E9F78B
:1028D0000E94FA12B2CF25130FC094130DC0E1105D
:1028E0000BC0F8018583C8010E94591286E0F601E9
:1028F00011928A95E9F73ECF4D875E878D859E853B
:102900000E94B612882371F2EE2061F28091FC01E0
:10291000803208F4B8CF2091F7013091F8013A8362
:1029200029831B82BD82AC828E83CE010196A9CF02
:10293000EF3AF10508F041C0FE2CEE2009F4B2CFC9
:1029400025132AC0941328C08091FC0180FD1BC070
:10295000982F907FC1F0F8018583903F31F0982F38
:10296000907F905F8F70892B8583C8010E945912D8
:1029700086E0F801A7EFB1E001900D928A95E1F7AA
:102980000E94FA12F7CE86E0F801A7EFB1E00190BD
:102990000D928A95E1F7EECE4D875E878D859E85F7
:1029A0000E94B61281116FCF8091FC0181608093EB
:1029B000FC01C8010E945912DDCE7A2DB98AA88A7D
:1029C0006E2D89890E94BA1286E0F60111928A95CD
:1029D000E9F7D6CFEE2009F465CF4D875E878D8568
:1029E0009E850E94B612F82E882309F45BCF86E0FC
:1029F000F801A7EFB1E001900D928A95E1F787EF1A
:102A000091E00E94A00F0E940813BACF81E08E25AA
:102A1000CBCE8FEA90E008951F93CF93DF93CDB78D
:102A2000DEB72C970FB6F894DEBF0FBECDBF4F8335
:102A3000588769877A878B879C87CE0107960E9483
:102A40005E13882369F08A859B85892B39F04F8135
:102A50005885842F85238F3F09F071C016E05FC031
:102A600086E0FE013796DE01119601900D928A955F
:102A7000E1F78A859B85892B89F38F819885892346
:102A80008F3F61F32091C60130E0C9010196877044
:102A900099274091C5014817190671F40E949312B5
:102AA0001092C6011092C50186E0E7EFF1E0DF0168
:102AB0001D928A95E9F7D2CF96E0929FD001939F1D
:102AC000B00D1124A953BE4FFE01319601900D9215
:102AD0009A95E1F78093C6010E94D912BFCF819FDA
:102AE000C001112489539E4F0E945E138823E9F090
:102AF000E091C5011E9FF0011124E953FE4F408172
:102B0000518162817381848195810E94C912809173
:102B1000C50190E00196877099278093C501809147
:102B2000C5019091C6018913DACF2C960FB6F8949F
:102B3000DEBF0FBECDBFDF91CF911F910895698594
:102B40007A858B859C850E94C91288CFEF92FF926F
:102B50000F931F93CF93DF938C01892B81F0F12C7E
:102B6000EE24E394E8012196F8018491843770F40F
:102B7000843008F05FC08130B1F08230A1F1DF9184
:102B8000CF911F910F91FF90EF900895853709F431
:102B90004CC008F43DC09CE7980F903780F78F77C2
:102BA0000E94EB0F49C00E5F1F4FFE01849190E21F
:102BB000980F983060F48770FE2D01C0FF0F8A9542
:102BC000EAF78F2F0E943B180E94641802C00E94EF
:102BD000A50F8F2D815030F2EFE9FFE03197F1F72B
:102BE00000C00000F7CF0E5F1F4FFE01849190E2FE
:102BF000980F983050F48770FE2D01C0FF0F8A9512
:102C0000EAF78F2F0E944118DFCF0E94EB0FE1CF30
:102C10000E5F1F4FFE01C491C150D8F28FE99FE0B3
:102C20000197F1F700C00000F7CF0E5F1F4FFE01C4
:102C3000F490CFCF0E94A50F8E01CBCF08950C94B6
:102C40001E160E941F1660932E0270932F0280930F
:102C50003002909331020C94811208950C94211645
:102C60000F931F9300912E0210912F02209130029A
:102C700030913102602B712B822B932B1F910F917E
:102C80000C9421160F931F9300912E0210912F0286
:102C900020913002309131026023712382239323EB
:102CA0001F910F910C9421160F931F9300912E02E8
:102CB00010912F022091300230913102602771274C
:102CC000822793271F910F910C9421160C941E16A6
:102CD0000C9466160E94681660932A0270932B0269
:102CE00080932C0290932D020C94811260E070E08E
:102CF000CB010C946A160F931F9341E050E060E003
:102D000070E08A019B0104C0000F111F221F331FB6
:102D10008A95D2F7C901B8011F910F910C946A16D8
:102D20000F931F9341E050E060E070E004C0440F57
:102D3000551F661F771F8A95D2F780912A029091BE
:102D40002B02A0912C02B0912D028A019B01082B2D
:102D5000192B2A2B3B2BC901B8011F910F910C9401
:102D60006A160F931F9341E050E060E070E004C0EA
:102D7000440F551F661F771F8A95D2F7CB01BA0102
:102D8000609570958095909500912A0210912B0284
:102D900020912C0230912D026023712382239323F2
:102DA0001F910F910C946A160F931F9341E050E00E
:102DB00060E070E004C0440F551F661F771F8A95BE
:102DC000D2F780912A0290912B02A0912C02B0910F
:102DD0002D028A019B01082719272A273B27C901B1
:102DE000B8011F910F910C946A160F931F930091D5
:102DF0002A0210912B0220912C0230912D02602B7F
:102E0000712B822B932B1F910F910C946A160F93A9
:102E10001F9300912A0210912B0220912C023091D5
:102E20002D0260237123822393231F910F910C9411
:102E30006A160F931F9300912A0210912B02209182
:102E40002C0230912D0260277127822793271F9132
:102E50000F910C946A1608952DE0929F800D112415
:102E6000982F977041E001C0440F9A95EAF7869534
:102E70008695869595E0899FF0011124E350FE4FD9
:102E800090E080E070E05191DF0111979B01082EE6
:102E900002C0369527950A94E2F7217021952527DF
:102EA000242325272C9301968530910561F70895F9
:102EB0002DE0929F800D1124982F9770869586950E
:102EC000869525E0829FF0011124E350FE4F50E0EB
:102ED00040E080E0219130E0092E02C03695279530
:102EE0000A94E2F721703327042E01C0220F0A94BE
:102EF000EAF7822B4F5F5F4F4530510559F7089530
:102F0000BF92CF92DF92EF92FF920F931F93CF93D6
:102F1000DF938C01C0902A02D0902B02E0902C020B
:102F2000F0902D0280912E0290912F02A0913002FC
:102F3000B0913102C82AD92AEA2AFB2ACFE1D0E08F
:102F4000BC2ED701C6010C2E04C0B695A795979547
:102F500087950A94D2F780FD0EC0219788F7B12C8F
:102F60008B2DDF91CF911F910F91FF90EF90DF900C
:102F7000CF90BF900895B8018C2F0E94B90401979B
:102F800061F3EECFCF93DF93EC010E948017BE0177
:102F9000DF91CF910C94B9041F93CF93DF93EB0192
:102FA0009091C401992331F0CB01DF91CF911F9112
:102FB0000C94C217882379F0CB010E948017182F38
:102FC000682FCE010E942C17BE01812FDF91CF9177
:102FD0001F910C94B904CB010E945817182FF4CFFD
:102FE000682F8091190190911A010C94051A682F8D
:102FF0008091190190911A010C94101A8091190175
:1030000090911A010C941B1A809132028595859536
:1030100085950895809132028770089590913202CB
:10302000977081E009F480E0089580915602089538
:1030300090915602892B8093560208958095909125
:1030400056029823909356020895109256020895BE
:1030500080915502089590915502892B80935502D5
:103060000895809590915502982390935502089564
:1030700010925502089590915402892B8093540226
:103080000895809590915402982390935402089546
:1030900010925402089580913302089508950C947B
:1030A0004E1890913302981721F0809333020C94BC
:1030B0004F18089580913302882329F0109233022B
:1030C00080E00C944F180895E0911901F0911A01D5
:1030D000809156028083E0911901F0911A0180815C
:1030E00090915502892B8083E0911901F0911A018A
:1030F000808190915402892B80839091330299238F
:1031000081F0E0911901F0911A018081892B80836F
:103110008091190190911A010E94711981110E94E8
:103120005A188091190190911A010C94590E089522
:103130000C94971898E0899F90011124622B60935A
:1031400032020E9490168091320285958595859570
:103150000C9498181092320280E00C949818909178
:1031600032028095892380933202282F277071F4D0
:10317000282F082E000C330B9217130639F0859573
:10318000859585950E94B1160C94AA1808956FEF45
:103190007FEF90E080E00C94CD2290E080E00E94F0
:1031A000A92221E08C3E9E4F09F020E0822F089555
:1031B00082E090E00C94A12283E090E00C94A122A4
:1031C000CF9384E090E00E94A122C82F81E290E09A
:1031D0000E94A122982F8C2FCF910895CF93C92FB1
:1031E000682F84E090E00E94AF226C2F81E290E093
:1031F000CF910C94AF22AB01BC018FE090E00C9416
:10320000C122AB01BC0183E190E00C94C12260E0DB
:1032100070E0CB010C94011960E070E0CB010E94DA
:10322000FB180C9407196CEE7EEF90E080E00E9492
:10323000CD2260E082E090E00E94AF2260E083E077
:1032400090E00E94AF2210922E0210922F02109254
:1032500030021092310260E084E090E00E94AF22E0
:1032600060E081E290E00E94AF2260E085E090E0C3
:103270000E94AF2260E086E090E00E94AF226FEFF4
:1032800087E090E00E94AF2240E050E0BA0188E081
:1032900090E00E94C12260E08DE090E00E94AF22A9
:1032A00040E050E0BA0188E190E00E94C12260E075
:1032B00087E190E00E94AF2240E050E0BA018CE14B
:1032C00090E00E94C12260E080E290E00E94AF2284
:1032D0000C940C190C941319682F8EE090E00C9448
:1032E000AF22FC01329680912501882321F0809144
:1032F00093029EE187FF96E080E0915008F40895E4
:1033000021912223D1F38F5FF8CF662301F1209121
:1033100025012223F1F02091930227FF1AC0462FA6
:103320004695469546954E3190F4677021E030E021
:1033300002C0220F331F6A95E2F7840F911DFC0132
:10334000828190E02823392381E0232B69F480E0F7
:103350000895FC01329608962191261721F0E8176E
:10336000F907D1F7F4CF81E008959C01FC01329672
:103370009FEF80E04191461751F09F3F19F44111B2
:1033800001C0982F8F5F8630A9F79F3F09F40895F9
:10339000290F311D97FD3A95F90162830895FC01CB
:1033A000329608962191261303C0DF0111971C92D3
:1033B000E817F907B9F70895E62FE695E695E6953B
:1033C000EE3168F4E80FF92FF11D677021E030E06D
:1033D00001C0220F6A95EAF78281822B82830895C9
:1033E000E62FE695E695E695EE3170F4E80FF92FB5
:1033F000F11D677021E030E001C0220F6A95EAF705
:10340000209582812823228308952091250122235B
:1034100029F02091930227FD0C94DC190C94B51926
:1034200020912501222329F02091930227FD0C945D
:10343000F0190C94CF19FC01329680912501882354
:1034400051F08091930287FF06C08EE1DF011D924B
:103450008A95E9F7089586E0F9CF089508950C94C8
:103460002E1A0E942F1A80919902843049F11092ED
:10347000580288E190E020E40FB6F894A895809374
:1034800060000FBE2093600080E00E94A5040E94AF
:103490002F1A83B7817F846083BF83B7816083BF26
:1034A0007894889583B78E7F83BF0FB6F894A895DC
:1034B00080916000886180936000109260000FBE70
:1034C00008950895CF930E942D1A0E941B070E9411
:1034D000611AC0E08C2F0E94A506892B31F4CF5FC2
:1034E000C530C1F780E0CF91089581E0FCCF089509
:1034F0000C94771A0E9493120E944D0E0E94A5040C
:103500000C94781A1F921FB61F9211248F939F93C9
:10351000AF93BF9380915802811113C080918F02A5
:1035200090919002A0919102B09192024196A11DBA
:10353000B11D80938F0290939002A0939102B0935B
:103540009202BF91AF919F918F911F901FBE1F90CC
:10355000189582E084BD93E095BD9AEF97BD809366
:103560006E0008952FB7F89480918F029091900289
:10357000A0919102B09192022FBF08952FB7F894B5
:1035800060918F02709190028091910290919202CD
:103590002FBF08959C014FB7F89480918F029091AE
:1035A0009002A0919102B09192024FBF821B930BA7
:1035B000089578941F921FB61F9211248F939F93A2
:1035C000AF93BF9380918F0290919002A09191024E
:1035D000B09192020196A11DB11D80938F0290932C
:1035E0009002A0939102B0939202BF91AF919F91EC
:1035F0008F911F901FBE1F90189587E797E79093B4
:1036000001088093000888E19AE00FB6F894A89525
:10361000809360000FBE90936000FFCF0C940D0864
:103620000E941B072FEF86E791E0215080409040D9
:10363000E1F700C000000E941B0780E00E94A50681
:1036400080FF04C00E940E1B0C94FD1A08950E9476
:10365000CD18811102C00E946A190E94D818809367
:1036600057020E94E01890939402809393020E9464
:10367000DC18682F70E090E080E00E942E166091C8
:103680002A0270912B0280912C0290912D020C94B1
:1036900068168091790208950895CF93DF9300D042
:1036A0000F92CDB7DEB790919902943011F58983CE
:1036B0007B836A839093E9008FEF9091E8008150BB
:1036C00095FD06C095ED9A95F1F700008111F5CFB3
:1036D0008091E80085FF0DC050E040E063E070E0BD
:1036E000CE0101960E94B41D8091E8008E778093F0
:1036F000E8000F900F900F90DF91CF910895BC01DB
:1037000084E00C944D1BBC0183E00C944D1BCF93C3
:10371000DF93EC01809125018823B1F18091930220
:1037200087FF32C060E284E08093E9008FEF9091E0
:10373000E800815095FD06C095ED9A95F1F70000DF
:103740008111F5CF8091E80085FF1BC08091250194
:1037500070E050E040E0811104C050E040E068E0DB
:1037600070E0CE010E94B41D8091E8008E778093B6
:10377000E80080E2FE01A9E5B2E001900D928A9591
:10378000E1F7DF91CF91089568E081E0CDCFCF934D
:10379000FC01603221F580919902843001F5C091DD
:1037A000E900CF702091EC00922F917020FD90E8FD
:1037B000C92B82E08093E9008091E80080FF0CC073
:1037C00050E040E060E270E0CF010E94B41D8091C3
:1037D000E8008E778093E800CF70C093E900CF9126
:1037E000089580919802811109C00E94931F0E9440
:1037F000F01F8091E20084608093E20008951092AF
:1038000098020895089508950C947A1A42E061ECA4
:1038100081E00E940F1F42E261EC84E00E940F1FD2
:1038200042E261EC82E00E940F1F42E260EC83E022
:103830000C940F1F80919B02833009F461C030F417
:103840008130D1F1823009F49DC008958A3009F4A5
:1038500089C08B3009F46FC0893009F050C0809165
:103860009A02813209F04BC080919E0290919F0292
:10387000009719F0029709F042C08091E800877F15
:103880008093E8008091E80082FF35C09091F300BA
:103890008091F200029729F48091F1008B7F8130B2
:1038A00021F48091F100809379028091E8008B7778
:1038B0008093E8000C94431F80919A02813AF9F4B6
:1038C0008091E800877F8093E80080919E0290912C
:1038D0009F02892B61F460E289E592E070E00E942A
:1038E000521E8091E8008B778093E800089560E095
:1038F00090E080E0F3CF809199028111C3CF0895C9
:1039000080919A02813AD9F780919E0290919F020C
:10391000892BA9F78091E800877F8093E800809148
:10392000E80080FFFCCF809125018093F100809119
:10393000E8008E77BDCF80919A02813201F78091A5
:103940009E0290919F02892BD1F68091E800877F9B
:103950008093E8000E94431F80919C028093250180
:103960000C94931280919A02813249F68091E8007A
:10397000877F8093E8000E94431F80919D0280937F
:103980007A02089580919A02813A09F0B8CF809125
:10399000E800877F8093E8008091E80080FFFCCFFB
:1039A00080917A02C2CFCDB7DEB7A0970FB6F89458
:1039B000DEBF0FBECDBF84B7877F84BF0FB6F8943C
:1039C000A8958091600088618093600010926000EB
:1039D0000FBE80E890E00FB6F8948093610090935A
:1039E00061000FBE0E94AD0E0E94931F0E94F01F47
:1039F0008091E20084608093E20078940E947922B2
:103A00000E94B70E8BE191E00E94480E13E0809176
:103A10009902853039F10E94CC0E80919902843050
:103A2000B1F71093E9008091E80082FFF0CF809118
:103A3000E80090E085FF09C050E040E060E270E0FF
:103A4000CE0101960E94031E91E08091E8008B77E1
:103A50008093E8009923D9F260E2CE0101960E949A
:103A60006F08D5CF0E94311A80919702882379F28E
:103A70000E94621A882359F20E949E1DC8CF0C949E
:103A8000411D292F33272330310521F168F42130DE
:103A9000310509F449C02230310509F44AC090E0EB
:103AA00080E030E020E029C02132310581F122326E
:103AB0003105A9F76330710590F7FB01EE0FFF1F89
:103AC000E356FE4F2081318166567E4FFB01808197
:103AD00090E013C099278130910599F0009741F04B
:103AE0008230910589F00397D1F6E4E5F3E002C056
:103AF000EAE8F3E0849190E09F01FA0131832083AA
:103B00000895E0E8F3E0F6CFEAE5F3E0F3CF6330C1
:103B1000710528F6660F771FFB01ED55FE4F2081DA
:103B2000318189E090E0E9CF82E190E029EE33E055
:103B3000E4CF8BE590E02EE833E0DFCF80E189BD74
:103B400082E189BD09B400FEFDCF8091D8008F7D50
:103B50008093D8008091E00082608093E0008091A3
:103B6000E00081FDFCCF0895AF92BF92CF92DF922B
:103B7000FF920F931F93CF93DF936C01EB018A01A8
:103B80000E94621FF82E811123C00115110539F022
:103B9000F80180819181C81BD90BC80ED91EB12CA8
:103BA000A12C2097A9F08091E80085FD22C080918A
:103BB000E8008E778093E80001151105A1F0F80167
:103BC00080819181A80EB91EB182A08285E0F82E75
:103BD0008F2DDF91CF911F910F91FF90DF90CF90AC
:103BE000BF90AF9008950E94621F8823D1F2F82EF3
:103BF000EFCFF60181916F018093F1002197FFEFE4
:103C0000AF1ABF0ACECFAF92BF92CF92DF92FF9290
:103C10000F931F93CF93DF936C01EB018A010E94F6
:103C2000621FF82E811123C00115110539F0F8012A
:103C300080819181C81BD90BC80ED91EB12CA12C33
:103C40002097A9F08091E80085FD22C08091E800CE
:103C50008B778093E80001151105A1F0F8018081B0
:103C60009181A80EB91EB182A08285E0F82E8F2D19
:103C7000DF91CF911F910F91FF90DF90CF90BF9078
:103C8000AF9008950E94621F8823D1F2F82EEFCFE3
:103C90008091F100F60181936F012197FFEFAF1A38
:103CA000BF0ACECFFC018091A0029091A10286179D
:103CB0009707A0F06115710529F49091E8009E77AF
:103CC0009093E80090E06115710551F4911108C0DE
:103CD0008091E80082FF34C080E00895BC01F2CFFB
:103CE000809199028823C1F18530C1F18091E8006B
:103CF00083FD30C08091E80082FDEACF8091E8002A
:103D000080FFE1CF8091F3002091F200382F611500
:103D1000710519F02830310558F091E0283031054F
:103D200009F090E02091E8002E772093E800CBCFB7
:103D300081918093F100615071092F5F3F4FE7CF70
:103D400080919902882341F0853041F08091E8000C
:103D500083FFBECF81E0089582E0089583E0089557
:103D6000FC018091A0029091A10286179707A0F014
:103D70006115710529F48091E8008E778093E80041
:103D800090E06115710551F4911108C08091E8002F
:103D900082FF35C080E00895BC01F2CF8091990286
:103DA0008823C9F18530C9F18091E80083FD31C0D5
:103DB0008091E80082FDEACF8091E80080FFE1CFAA
:103DC0008091F3002091F200382F6115710519F0F0
:103DD0002830310558F091E02830310509F090E0A5
:103DE0008091E8008E778093E800CBCF8491809318
:103DF000F1003196615071092F5F3F4FE6CF8091FE
:103E00009902882341F0853041F08091E80083FFDA
:103E1000BDCF81E0089582E0089583E00895982F52
:103E2000973028F08F708093E90081E00895909397
:103E3000E900242F762F50E0981731F07091EC00B4
:103E40002091ED005091F00021FD02C09F5FE8CF6E
:103E50003091EB003E7F3093EB003091ED003D7FE1
:103E60003093ED003091EB0031603093EB007093B4
:103E7000EC002093ED005093F0002091EE0027FD20
:103E8000E5CF80E0089580919A0287FF13C080916A
:103E9000E80082FF06C08091E8008B778093E800FD
:103EA00004C0809199028111F2CF08958091990206
:103EB0008823D9F38091E80080FFF8CF8091E80053
:103EC0008E77ECCF2091E4003091E50095E6A901D2
:103ED0002091EC00822F817020FF06C08091E800C5
:103EE00080FF06C080E008952091E80022FD1AC0FE
:103EF00080919902882389F0853089F08091EB00C8
:103F000085FD0FC02091E4003091E5004217530772
:103F1000F9F29150E1F684E0089582E0089583E09B
:103F2000089581E008950E9401200E940920E0EE9A
:103F3000F0E0808181608083E8EDF0E080818F7720
:103F4000808319BCA7EDB0E08C918E7F8C9380812B
:103F50008F7E80831092980208950F931F93CF93C2
:103F6000DF930E9401200E940920C8EDD0E08881E3
:103F70008F77888388818068888388818F7D888314
:103F800019BC109299021092950210929702109209
:103F9000960200EE10E0F80180818B7F808388819B
:103FA0008160888342E060E080E00E940F1FE1EEC4
:103FB000F0E080818E7F8083E2EEF0E0808181609E
:103FC0008083808188608083F80180818E7F8083F8
:103FD000888180618883DF91CF911F910F9108952F
:103FE000E8EDF0E080818F7E8083E7EDF0E0808176
:103FF0008160808384E082BF81E0809398020C948A
:10400000AD1FE8EDF0E080818E7F80831092E200AA
:1040100008951092DA001092E10008951F920F9215
:104020000FB60F9211242F933F934F935F936F938B
:104030007F938F939F93AF93BF93EF93FF93809161
:10404000E10082FF0BC08091E20082FF07C08091F7
:10405000E1008B7F8093E1000E9478228091DA005A
:1040600080FF19C08091D80080FF15C08091DA00D0
:104070008E7F8093DA008091D90080FF96C080E126
:1040800089BD82E189BD09B400FEFDCF81E0809346
:1040900099020E94F11B8091E10080FF19C080917C
:1040A000E20080FF15C08091E2008E7F8093E200E5
:1040B0008091E20080618093E2008091D80080626C
:1040C0008093D80019BC85E0809399020E94031C5C
:1040D0008091E10084FF2BC08091E20084FF27C023
:1040E00080E189BD82E189BD89B5982F917080FFFB
:1040F000FBCF8091D8008F7D8093D8008091E10024
:104100008F7E8093E1008091E2008F7E8093E200B9
:104110008091E20081608093E20080919502882383
:1041200009F449C084E0809399020E94041C8091A4
:10413000E10083FF29C08091E20083FF25C08091C8
:10414000E100877F8093E10082E0809399021092E2
:1041500095028091E1008E7F8093E1008091E200E2
:104160008E7F8093E2008091E20080618093E20084
:1041700042E060E080E00E940F1F8091F0008860C4
:104180008093F0000E94021CFF91EF91BF91AF91CC
:104190009F918F917F916F915F914F913F912F915F
:1041A0000F900FBE0F901F90189519BC1092990296
:1041B0000E94FF1B70CF8091E30087FD93E09093F6
:1041C0009902B3CF1F920F920FB60F9211242F9323
:1041D0003F934F935F936F937F938F939F93AF938F
:1041E000BF93CF93DF93EF93FF93D091E900DF70FC
:1041F0008091EC00C82FC17080FDC0E81092E900EA
:104200008091F000877F8093F00078940E942621AF
:104210001092E9008091F00088608093F000CD2B2F
:10422000CF70C093E900FF91EF91DF91CF91BF91E3
:10423000AF919F918F917F916F915F914F913F913E
:104240002F910F900FBE0F901F9018951F93CF9333
:10425000DF93CDB7DEB7AA970FB6F894DEBF0FBED7
:10426000CDBF8AE992E02091F100FC012193CF01BA
:10427000F2E0823A9F07B9F70E941A1C8091E80089
:1042800083FF1EC180919A0290919B029A3008F0A0
:1042900017C1E92FF0E0EA5EFC4D0C9494228038BF
:1042A00099F0823809F00CC180919E028F7087309E
:1042B00008F006C18093E9008091EB0085FB882718
:1042C00080F91092E90006C08091960290919702C1
:1042D000911182609091E800977F9093E80080931D
:1042E000F1001092F1008091E8008E77E5C08823FC
:1042F00009F4D3C0823009F0E3C080919C0281119F
:10430000D6C080919E028F702FEF280F263008F0C4
:10431000D7C08093E9002091EB0020FFC8C0933004
:1043200031F48091EB0080628093EB00C0C09091EB
:10433000EB0090619093EB0021E030E001C0220F90
:104340008A95EAF72093EA001092EA008091EB0048
:104350008860EACF8111B4C010919C021F778091D0
:10436000E3008078812B8093E3008091E800877FD1
:104370008093E8000E94431F8091E80080FFFCCFFB
:104380008091E30080688093E30082E0111183E074
:104390008093990295C08058823008F091C0809136
:1043A0009C0290919D028C3D23E09207A1F583E051
:1043B0008A838AE289834FB7F894DE01139620E05E
:1043C0003EE051E2E32FF0E050935700E49120FFEC
:1043D00003C0E295EF703F5FEF708E2F90E0EA3000
:1043E000C0F0C7968D939D932F5F243159F74FBF2F
:1043F0008091E800877F8093E8006AE270E0CE0158
:1044000001960E94521E8091E8008B778093E8000D
:1044100057C0C096E7CF60919E0270919F02AE0197
:104420004F5F5F4F0E943F1DBC01892B09F448C0BC
:104430009091E800977F9093E80089819A810E948B
:10444000B01EE1CF8038E1F58091E800877F80934E
:10445000E800809195028093F10045CF811130C032
:1044600090919C02923060F58091E800877F809364
:10447000E800909395020E94431F80919502882343
:1044800011F084E005C08091E30087FDFACF81E060
:10449000809399020E94061C13C080919C02813077
:1044A00079F481E0933009F080E0809397021092D4
:1044B000E9008091E800877F8093E8000E94431F15
:1044C0008091E80083FF0AC08091E800877F809395
:1044D000E8008091EB0080628093EB00AA960FB613
:1044E000F894DEBF0FBECDBFDF91CF911F9108952D
:1044F0000895CF93809199028823A1F0C091E9009B
:10450000CF709091EC00892F817090FD80E8C82BCE
:104510001092E9008091E80083FD0E942621CF706F
:10452000C093E900CF910895EE0FFF1F0590F4911D
:10453000E02D099469279627692778278727782708
:104540000895F999FECF92BD81BDF89A992780B55B
:104550000895A8E1B0E042E050E00C94D522262F67
:10456000F999FECF92BD81BDF89A019700B4021669
:1045700039F01FBA20BD0FB6F894FA9AF99A0FBE17
:1045800008950396272F0E94B0220E94AF22252F64
:104590000E94B022242F0C94B0220196272F0E9453
:1045A000B0220C94AF22DC01CB01FC01F999FECFC3
:1045B00006C0F2BDE1BDF89A319600B40D924150AB
:1045C0005040B8F70895F894FFCF81088E08B508D9
:1045D000C108CC08D708DA08DA08DA08230926095E
:1045E000DD08E108E908F6080309060909091609C2
:1045F0006B106B10C310C310151198109810981001
:104600003111BD11CC11CC11281298109810311213
:10461000A212A212AB12AB12AD12AB12AB12AB12C2
:10462000A212A212B212AB12AB12B2124F21772118
:10463000602277216022AA21CB21602222222E2211
:104640000000B802AE020000000000000000000000
:104650000000000000000100FF3402491B871B4CD2
:104660001B831B7F1B01E200E900EA00B500B600D6
:10467000B700CD008301CC008A0192019401210290
:10468000230224022502260227022A02B300B400D4
:104690006F00700081828393929190946697C634E4
:1046A0003536323331F7F6F5F4E200E900EA00B5C9
:1046B00000B600B700CD008301CC008A01920194BE
:1046C000012102230224022502260227022A02B324
:1046D00000B4006F00700081828340226D8A04FB69
:0A46E000031D04A003B903D9030071
:00000001FF
